{
  "contractName": "LegalFramework",
  "abi": [
    {
      "inputs": [
        {
          "internalType": "uint256",
          "name": "asset",
          "type": "uint256"
        }
      ],
      "name": "stipulation",
      "outputs": [
        {
          "internalType": "bool",
          "name": "",
          "type": "bool"
        }
      ],
      "stateMutability": "pure",
      "type": "function"
    }
  ],
  "bytecode": "0x608060405234801561001057600080fd5b50610124806100206000396000f3fe6080604052348015600f57600080fd5b506004361060285760003560e01c8063c2ec774e14602d575b600080fd5b60436004803603810190603f91906071565b6057565b604051604e919060a6565b60405180910390f35b6000919050565b600081359050606b8160da565b92915050565b600060208284031215608457608360d5565b5b6000609084828501605e565b91505092915050565b60a08160bf565b82525050565b600060208201905060b960008301846099565b92915050565b60008115159050919050565b6000819050919050565b600080fd5b60e18160cb565b811460eb57600080fd5b5056fea2646970667358221220d59eff0bc7fd0fee50db26b5539e936359ce7bd059965919bb6e8673efd43a2e64736f6c63430008060033",
  "immutableReferences": {},
  "source": "// SPDX-License-Identifier: MIT\npragma solidity ^0.8.6;\ncontract LegalFramework {\n    /*\n    Outlines:\n    1. If borrower defaults on loan then NFT is sold back at market price by collateral manager\n    2. If borrower wants to get back NFT they can\n    Re-Payments options:\n    How do we deal with the connundrum of choosing to pay back loan?\n    Install payments: NFT will know, as soon payment is done\n    Take timestamp and have Oracle that will determine loan has been paid\n    Process:\n    Step1. Loan Registration\n    Step2. Loan Repayment\n    Step3. Pool via Chainlink/Oracle that will keep track of timestamp/repayment\n    Step4. Pool confirmation\n    */\n    \n    function stipulation(uint256 asset) pure public returns (bool) {\n       /*\n        1. If borrower defaults on loan then NFT is sold back at market price by collateral manager\n        2. If borrower wants to get back NFT they can buy back NFT\n        3. NFT has been sold, other funds put back into the pool\n        1% to collateral manager once sale is final and the rest to goes back to the pool\n        Any funds left post-sale (of loan) goes to asset owner and 1% goes to the collateral manager\n\n    \n\n       */\n        \n    }\n}",
  "sourcePath": "/Users/heyyehudes/Documents/Farmbit_Demo/Project-Demo/contracts/LegalFramework.sol",
  "compiler": {
    "name": "solc",
    "version": "0.8.6+commit.11564f7e.Emscripten.clang"
  },
  "schemaVersion": "3.3.1",
  "updatedAt": "2021-08-05T02:02:11.333Z",
  "devdoc": {
    "kind": "dev",
    "methods": {},
    "version": 1
  },
  "userdoc": {
    "kind": "user",
    "methods": {},
    "version": 1
  }
}