{
  "contractName": "NFT",
  "abi": [
    {
      "anonymous": false,
      "inputs": [
        {
          "indexed": false,
          "internalType": "uint256",
          "name": "newLoanId",
          "type": "uint256"
        },
        {
          "indexed": false,
          "internalType": "string",
          "name": "required_loan_duration",
          "type": "string"
        },
        {
          "indexed": false,
          "internalType": "uint256",
          "name": "amount",
          "type": "uint256"
        },
        {
          "indexed": false,
          "internalType": "string",
          "name": "details_of_receipt",
          "type": "string"
        }
      ],
      "name": "ApplicationMade",
      "type": "event"
    },
    {
      "anonymous": false,
      "inputs": [
        {
          "indexed": true,
          "internalType": "address",
          "name": "owner",
          "type": "address"
        },
        {
          "indexed": true,
          "internalType": "address",
          "name": "approved",
          "type": "address"
        },
        {
          "indexed": true,
          "internalType": "uint256",
          "name": "tokenId",
          "type": "uint256"
        }
      ],
      "name": "Approval",
      "type": "event"
    },
    {
      "anonymous": false,
      "inputs": [
        {
          "indexed": true,
          "internalType": "address",
          "name": "owner",
          "type": "address"
        },
        {
          "indexed": true,
          "internalType": "address",
          "name": "operator",
          "type": "address"
        },
        {
          "indexed": false,
          "internalType": "bool",
          "name": "approved",
          "type": "bool"
        }
      ],
      "name": "ApprovalForAll",
      "type": "event"
    },
    {
      "anonymous": false,
      "inputs": [
        {
          "indexed": false,
          "internalType": "uint256",
          "name": "ReceiptId",
          "type": "uint256"
        },
        {
          "indexed": false,
          "internalType": "string",
          "name": "shipper",
          "type": "string"
        },
        {
          "indexed": false,
          "internalType": "string",
          "name": "cosignee",
          "type": "string"
        },
        {
          "indexed": false,
          "internalType": "string",
          "name": "destination",
          "type": "string"
        },
        {
          "indexed": false,
          "internalType": "uint64",
          "name": "unitWeight",
          "type": "uint64"
        },
        {
          "indexed": false,
          "internalType": "uint64",
          "name": "numberOfPackages",
          "type": "uint64"
        },
        {
          "indexed": false,
          "internalType": "uint64",
          "name": "totalWeight",
          "type": "uint64"
        },
        {
          "indexed": false,
          "internalType": "uint256",
          "name": "itemId",
          "type": "uint256"
        },
        {
          "indexed": false,
          "internalType": "uint256",
          "name": "packageId",
          "type": "uint256"
        },
        {
          "indexed": false,
          "internalType": "uint256",
          "name": "date",
          "type": "uint256"
        }
      ],
      "name": "ReceiptIssued",
      "type": "event"
    },
    {
      "anonymous": false,
      "inputs": [
        {
          "indexed": true,
          "internalType": "address",
          "name": "from",
          "type": "address"
        },
        {
          "indexed": true,
          "internalType": "address",
          "name": "to",
          "type": "address"
        },
        {
          "indexed": true,
          "internalType": "uint256",
          "name": "tokenId",
          "type": "uint256"
        }
      ],
      "name": "Transfer",
      "type": "event"
    },
    {
      "inputs": [
        {
          "internalType": "uint256",
          "name": "",
          "type": "uint256"
        }
      ],
      "name": "Loans",
      "outputs": [
        {
          "internalType": "uint256",
          "name": "id",
          "type": "uint256"
        },
        {
          "internalType": "string",
          "name": "required_loan_duration",
          "type": "string"
        },
        {
          "internalType": "uint256",
          "name": "amount",
          "type": "uint256"
        },
        {
          "internalType": "string",
          "name": "details_of_receipt",
          "type": "string"
        }
      ],
      "stateMutability": "view",
      "type": "function",
      "constant": true
    },
    {
      "inputs": [
        {
          "internalType": "address",
          "name": "",
          "type": "address"
        }
      ],
      "name": "balances",
      "outputs": [
        {
          "internalType": "uint256",
          "name": "",
          "type": "uint256"
        }
      ],
      "stateMutability": "view",
      "type": "function",
      "constant": true
    },
    {
      "inputs": [
        {
          "internalType": "uint256",
          "name": "_id",
          "type": "uint256"
        },
        {
          "internalType": "string",
          "name": "_shipper",
          "type": "string"
        },
        {
          "internalType": "string",
          "name": "_cosignee",
          "type": "string"
        },
        {
          "internalType": "string",
          "name": "_destination",
          "type": "string"
        },
        {
          "internalType": "uint64",
          "name": "_unitWeight",
          "type": "uint64"
        },
        {
          "internalType": "uint64",
          "name": "_numberOfPackages",
          "type": "uint64"
        },
        {
          "internalType": "uint64",
          "name": "_totalWeight",
          "type": "uint64"
        },
        {
          "internalType": "uint64",
          "name": "_itemId",
          "type": "uint64"
        },
        {
          "internalType": "uint256",
          "name": "_packageId",
          "type": "uint256"
        },
        {
          "internalType": "uint256",
          "name": "_date",
          "type": "uint256"
        }
      ],
      "name": "issueReceipt",
      "outputs": [
        {
          "internalType": "uint256",
          "name": "",
          "type": "uint256"
        }
      ],
      "stateMutability": "nonpayable",
      "type": "function"
    },
    {
      "inputs": [
        {
          "internalType": "uint256",
          "name": "",
          "type": "uint256"
        }
      ],
      "name": "loanIdMapping",
      "outputs": [
        {
          "internalType": "address",
          "name": "",
          "type": "address"
        }
      ],
      "stateMutability": "view",
      "type": "function",
      "constant": true
    },
    {
      "inputs": [
        {
          "internalType": "address",
          "name": "",
          "type": "address"
        }
      ],
      "name": "loanIncites",
      "outputs": [
        {
          "internalType": "uint256",
          "name": "",
          "type": "uint256"
        }
      ],
      "stateMutability": "view",
      "type": "function",
      "constant": true
    },
    {
      "inputs": [
        {
          "internalType": "uint256",
          "name": "",
          "type": "uint256"
        }
      ],
      "name": "loanIndexToApproved",
      "outputs": [
        {
          "internalType": "address",
          "name": "",
          "type": "address"
        }
      ],
      "stateMutability": "view",
      "type": "function",
      "constant": true
    },
    {
      "inputs": [],
      "name": "name",
      "outputs": [
        {
          "internalType": "string",
          "name": "",
          "type": "string"
        }
      ],
      "stateMutability": "view",
      "type": "function",
      "constant": true
    },
    {
      "inputs": [
        {
          "internalType": "uint256",
          "name": "",
          "type": "uint256"
        }
      ],
      "name": "receipts",
      "outputs": [
        {
          "internalType": "uint256",
          "name": "id",
          "type": "uint256"
        },
        {
          "internalType": "string",
          "name": "shipper",
          "type": "string"
        },
        {
          "internalType": "string",
          "name": "cosignee",
          "type": "string"
        },
        {
          "internalType": "string",
          "name": "destination",
          "type": "string"
        },
        {
          "internalType": "uint64",
          "name": "unitWeight",
          "type": "uint64"
        },
        {
          "internalType": "uint64",
          "name": "numberOfPackages",
          "type": "uint64"
        },
        {
          "internalType": "uint64",
          "name": "totalWeight",
          "type": "uint64"
        },
        {
          "internalType": "uint256",
          "name": "itemId",
          "type": "uint256"
        },
        {
          "internalType": "uint256",
          "name": "packageId",
          "type": "uint256"
        },
        {
          "internalType": "uint256",
          "name": "date",
          "type": "uint256"
        }
      ],
      "stateMutability": "view",
      "type": "function",
      "constant": true
    },
    {
      "inputs": [
        {
          "internalType": "uint256",
          "name": "_id",
          "type": "uint256"
        }
      ],
      "name": "showReceipts",
      "outputs": [
        {
          "internalType": "uint256",
          "name": "",
          "type": "uint256"
        },
        {
          "internalType": "string",
          "name": "",
          "type": "string"
        },
        {
          "internalType": "string",
          "name": "",
          "type": "string"
        },
        {
          "internalType": "string",
          "name": "",
          "type": "string"
        },
        {
          "internalType": "uint64",
          "name": "",
          "type": "uint64"
        },
        {
          "internalType": "uint64",
          "name": "",
          "type": "uint64"
        },
        {
          "internalType": "uint64",
          "name": "",
          "type": "uint64"
        },
        {
          "internalType": "uint256",
          "name": "",
          "type": "uint256"
        },
        {
          "internalType": "uint256",
          "name": "",
          "type": "uint256"
        },
        {
          "internalType": "uint256",
          "name": "",
          "type": "uint256"
        }
      ],
      "stateMutability": "view",
      "type": "function",
      "constant": true
    },
    {
      "inputs": [],
      "name": "symbol",
      "outputs": [
        {
          "internalType": "string",
          "name": "",
          "type": "string"
        }
      ],
      "stateMutability": "view",
      "type": "function",
      "constant": true
    },
    {
      "inputs": [
        {
          "internalType": "uint256",
          "name": "_id",
          "type": "uint256"
        },
        {
          "internalType": "string",
          "name": "_required_loan_duration",
          "type": "string"
        },
        {
          "internalType": "uint256",
          "name": "_amount",
          "type": "uint256"
        },
        {
          "internalType": "string",
          "name": "_details_of_receipt",
          "type": "string"
        }
      ],
      "name": "loanApplication",
      "outputs": [
        {
          "internalType": "uint256",
          "name": "",
          "type": "uint256"
        }
      ],
      "stateMutability": "nonpayable",
      "type": "function"
    },
    {
      "inputs": [
        {
          "internalType": "uint256",
          "name": "_id",
          "type": "uint256"
        }
      ],
      "name": "getLoans",
      "outputs": [
        {
          "internalType": "uint256",
          "name": "id",
          "type": "uint256"
        },
        {
          "internalType": "string",
          "name": "required_loan_duration",
          "type": "string"
        },
        {
          "internalType": "uint256",
          "name": "amount",
          "type": "uint256"
        },
        {
          "internalType": "string",
          "name": "details_of_receipt",
          "type": "string"
        }
      ],
      "stateMutability": "view",
      "type": "function",
      "constant": true
    },
    {
      "inputs": [],
      "name": "totalSupply",
      "outputs": [
        {
          "internalType": "uint256",
          "name": "total",
          "type": "uint256"
        }
      ],
      "stateMutability": "view",
      "type": "function",
      "constant": true
    },
    {
      "inputs": [
        {
          "internalType": "address",
          "name": "owner",
          "type": "address"
        }
      ],
      "name": "balanceOf",
      "outputs": [
        {
          "internalType": "uint256",
          "name": "balance",
          "type": "uint256"
        }
      ],
      "stateMutability": "view",
      "type": "function",
      "constant": true
    },
    {
      "inputs": [
        {
          "internalType": "uint256",
          "name": "tokenId",
          "type": "uint256"
        }
      ],
      "name": "ownerOf",
      "outputs": [
        {
          "internalType": "address",
          "name": "owner",
          "type": "address"
        }
      ],
      "stateMutability": "view",
      "type": "function",
      "constant": true
    },
    {
      "inputs": [
        {
          "internalType": "address",
          "name": "to",
          "type": "address"
        },
        {
          "internalType": "uint256",
          "name": "tokenId",
          "type": "uint256"
        }
      ],
      "name": "transfer",
      "outputs": [],
      "stateMutability": "nonpayable",
      "type": "function"
    },
    {
      "inputs": [
        {
          "internalType": "address",
          "name": "_approved",
          "type": "address"
        },
        {
          "internalType": "uint256",
          "name": "_tokenId",
          "type": "uint256"
        }
      ],
      "name": "approve",
      "outputs": [],
      "stateMutability": "payable",
      "type": "function",
      "payable": true
    },
    {
      "inputs": [
        {
          "internalType": "address",
          "name": "operator",
          "type": "address"
        },
        {
          "internalType": "bool",
          "name": "_approved",
          "type": "bool"
        }
      ],
      "name": "setApprovalForAll",
      "outputs": [],
      "stateMutability": "nonpayable",
      "type": "function"
    },
    {
      "inputs": [
        {
          "internalType": "uint256",
          "name": "_tokenId",
          "type": "uint256"
        }
      ],
      "name": "getApproved",
      "outputs": [
        {
          "internalType": "address",
          "name": "",
          "type": "address"
        }
      ],
      "stateMutability": "view",
      "type": "function",
      "constant": true
    },
    {
      "inputs": [
        {
          "internalType": "address",
          "name": "_owner",
          "type": "address"
        },
        {
          "internalType": "address",
          "name": "_operator",
          "type": "address"
        }
      ],
      "name": "isApprovedForAll",
      "outputs": [
        {
          "internalType": "bool",
          "name": "",
          "type": "bool"
        }
      ],
      "stateMutability": "view",
      "type": "function",
      "constant": true
    },
    {
      "inputs": [
        {
          "internalType": "address",
          "name": "_from",
          "type": "address"
        },
        {
          "internalType": "address",
          "name": "_to",
          "type": "address"
        },
        {
          "internalType": "uint256",
          "name": "_tokenId",
          "type": "uint256"
        }
      ],
      "name": "safeTransferFrom",
      "outputs": [],
      "stateMutability": "payable",
      "type": "function",
      "payable": true
    },
    {
      "inputs": [
        {
          "internalType": "address",
          "name": "_from",
          "type": "address"
        },
        {
          "internalType": "address",
          "name": "_to",
          "type": "address"
        },
        {
          "internalType": "uint256",
          "name": "_tokenId",
          "type": "uint256"
        },
        {
          "internalType": "bytes",
          "name": "data",
          "type": "bytes"
        }
      ],
      "name": "safeTransferFrom",
      "outputs": [],
      "stateMutability": "payable",
      "type": "function",
      "payable": true
    },
    {
      "inputs": [
        {
          "internalType": "address",
          "name": "_from",
          "type": "address"
        },
        {
          "internalType": "address",
          "name": "_to",
          "type": "address"
        },
        {
          "internalType": "uint256",
          "name": "_tokenId",
          "type": "uint256"
        }
      ],
      "name": "transferFrom",
      "outputs": [],
      "stateMutability": "payable",
      "type": "function",
      "payable": true
    },
    {
      "inputs": [
        {
          "internalType": "uint256",
          "name": "receiptId",
          "type": "uint256"
        },
        {
          "internalType": "uint256",
          "name": "amount",
          "type": "uint256"
        },
        {
          "internalType": "uint256",
          "name": "collateral",
          "type": "uint256"
        },
        {
          "internalType": "address",
          "name": "_owner",
          "type": "address"
        },
        {
          "internalType": "address",
          "name": "_operator",
          "type": "address"
        }
      ],
      "name": "mintNFT",
      "outputs": [
        {
          "internalType": "bool",
          "name": "",
          "type": "bool"
        }
      ],
      "stateMutability": "view",
      "type": "function",
      "constant": true
    },
    {
      "inputs": [
        {
          "internalType": "uint256",
          "name": "amount",
          "type": "uint256"
        }
      ],
      "name": "calculateFee",
      "outputs": [
        {
          "internalType": "uint256",
          "name": "",
          "type": "uint256"
        }
      ],
      "stateMutability": "pure",
      "type": "function",
      "constant": true
    }
  ],
  "bytecode": "0x608060405234801561001057600080fd5b50600160008190555061307a806100286000396000f3fe6080604052600436106101665760003560e01c80633d10d201116100d157806399a5d7471161008a578063a9059cbb11610064578063a9059cbb146105d7578063b88d4fde14610600578063dd2888171461061c578063e985e9c51461065957610166565b806399a5d74714610534578063a22cb46514610571578063a4f2c49d1461059a57610166565b80633d10d201146103f657806342842e0e146104335780636352211e1461044f57806370a082311461048c57806389b279e7146104c957806395d89b411461050957610166565b8063157fb4dd11610123578063157fb4dd146102b257806318160ddd146102ef57806323b872dd1461031a5780632472cdef1461033657806327e235e31461037c57806337725e9e146103b957610166565b8063069440f51461016b57806306fdde03146101a8578063081812fc146101d3578063095ea7b3146102105780630aed3ca11461022c5780630f7ee1ec1461026c575b600080fd5b34801561017757600080fd5b50610192600480360381019061018d91906124e5565b610696565b60405161019f9190612862565b60405180910390f35b3480156101b457600080fd5b506101bd6106c9565b6040516101ca919061290d565b60405180910390f35b3480156101df57600080fd5b506101fa60048036038101906101f591906124e5565b610702565b6040516102079190612862565b60405180910390f35b61022a6004803603810190610225919061244b565b610750565b005b34801561023857600080fd5b50610253600480360381019061024e91906124e5565b610839565b6040516102639493929190612aec565b60405180910390f35b34801561027857600080fd5b50610293600480360381019061028e91906124e5565b6109fe565b6040516102a99a9998979695949392919061298a565b60405180910390f35b3480156102be57600080fd5b506102d960048036038101906102d491906126e4565b610c36565b6040516102e691906128f2565b60405180910390f35b3480156102fb57600080fd5b50610304610ce5565b604051610311919061296f565b60405180910390f35b610334600480360381019061032f9190612335565b610cf2565b005b34801561034257600080fd5b5061035d600480360381019061035891906124e5565b610f19565b6040516103739a9998979695949392919061298a565b60405180910390f35b34801561038857600080fd5b506103a3600480360381019061039e91906122c8565b611225565b6040516103b0919061296f565b60405180910390f35b3480156103c557600080fd5b506103e060048036038101906103db9190612645565b61123d565b6040516103ed919061296f565b60405180910390f35b34801561040257600080fd5b5061041d60048036038101906104189190612512565b61133f565b60405161042a919061296f565b60405180910390f35b61044d60048036038101906104489190612335565b61155f565b005b34801561045b57600080fd5b50610476600480360381019061047191906124e5565b61157f565b6040516104839190612862565b60405180910390f35b34801561049857600080fd5b506104b360048036038101906104ae91906122c8565b6115bc565b6040516104c0919061296f565b60405180910390f35b3480156104d557600080fd5b506104f060048036038101906104eb91906124e5565b611605565b6040516105009493929190612aec565b60405180910390f35b34801561051557600080fd5b5061051e611755565b60405161052b919061290d565b60405180910390f35b34801561054057600080fd5b5061055b600480360381019061055691906124e5565b61178e565b604051610568919061296f565b60405180910390f35b34801561057d57600080fd5b506105986004803603810190610593919061240b565b6117b8565b005b3480156105a657600080fd5b506105c160048036038101906105bc91906122c8565b61189e565b6040516105ce919061296f565b60405180910390f35b3480156105e357600080fd5b506105fe60048036038101906105f9919061244b565b6118b6565b005b61061a60048036038101906106159190612388565b61194b565b005b34801561062857600080fd5b50610643600480360381019061063e91906124e5565b611972565b6040516106509190612862565b60405180910390f35b34801561066557600080fd5b50610680600480360381019061067b91906122f5565b6119a5565b60405161068d91906128f2565b60405180910390f35b60066020528060005260406000206000915054906101000a900473ffffffffffffffffffffffffffffffffffffffff1681565b6040518060400160405280601c81526020017f4661726d2042697420436f6c6c61746572616c2050726f746f636f6c0000000081525081565b6000600280549050821061071557600080fd5b6006600083815260200190815260200160002060009054906101000a900473ffffffffffffffffffffffffffffffffffffffff169050919050565b600073ffffffffffffffffffffffffffffffffffffffff168273ffffffffffffffffffffffffffffffffffffffff16141561078a57600080fd5b6107943382611a39565b61079d57600080fd5b6107a78282611aa5565b808273ffffffffffffffffffffffffffffffffffffffff166005600084815260200190815260200160002060009054906101000a900473ffffffffffffffffffffffffffffffffffffffff1673ffffffffffffffffffffffffffffffffffffffff167f8c5be1e5ebec7d5bd14f71427d1e84f3dd0314c0f7b2291e5b200ac8c7c3b92560405160405180910390a45050565b60006060600060606002858154811061085557610854612efc565b5b9060005260206000209060040201600001546002868154811061087b5761087a612efc565b5b9060005260206000209060040201600101600287815481106108a05761089f612efc565b5b906000526020600020906004020160020154600288815481106108c6576108c5612efc565b5b90600052602060002090600402016003018280546108e390612dc3565b80601f016020809104026020016040519081016040528092919081815260200182805461090f90612dc3565b801561095c5780601f106109315761010080835404028352916020019161095c565b820191906000526020600020905b81548152906001019060200180831161093f57829003601f168201915b5050505050925080805461096f90612dc3565b80601f016020809104026020016040519081016040528092919081815260200182805461099b90612dc3565b80156109e85780601f106109bd576101008083540402835291602001916109e8565b820191906000526020600020905b8154815290600101906020018083116109cb57829003601f168201915b5050505050905093509350935093509193509193565b60018181548110610a0e57600080fd5b9060005260206000209060080201600091509050806000015490806001018054610a3790612dc3565b80601f0160208091040260200160405190810160405280929190818152602001828054610a6390612dc3565b8015610ab05780601f10610a8557610100808354040283529160200191610ab0565b820191906000526020600020905b815481529060010190602001808311610a9357829003601f168201915b505050505090806002018054610ac590612dc3565b80601f0160208091040260200160405190810160405280929190818152602001828054610af190612dc3565b8015610b3e5780601f10610b1357610100808354040283529160200191610b3e565b820191906000526020600020905b815481529060010190602001808311610b2157829003601f168201915b505050505090806003018054610b5390612dc3565b80601f0160208091040260200160405190810160405280929190818152602001828054610b7f90612dc3565b8015610bcc5780601f10610ba157610100808354040283529160200191610bcc565b820191906000526020600020905b815481529060010190602001808311610baf57829003601f168201915b5050505050908060040160009054906101000a900467ffffffffffffffff16908060040160089054906101000a900467ffffffffffffffff16908060040160109054906101000a900467ffffffffffffffff1690806005015490806006015490806007015490508a565b6000808611610c4457600080fd5b848411610c5057600080fd5b600760008473ffffffffffffffffffffffffffffffffffffffff1673ffffffffffffffffffffffffffffffffffffffff16815260200190815260200160002060008373ffffffffffffffffffffffffffffffffffffffff1673ffffffffffffffffffffffffffffffffffffffff16815260200190815260200160002060009054906101000a900460ff16905095945050505050565b6000600280549050905090565b600073ffffffffffffffffffffffffffffffffffffffff168273ffffffffffffffffffffffffffffffffffffffff161415610d2c57600080fd5b60006005600083815260200190815260200160002060009054906101000a900473ffffffffffffffffffffffffffffffffffffffff1690508073ffffffffffffffffffffffffffffffffffffffff168373ffffffffffffffffffffffffffffffffffffffff161415610d9d57600080fd5b8373ffffffffffffffffffffffffffffffffffffffff163373ffffffffffffffffffffffffffffffffffffffff161480610ddd5750610ddc3383611afb565b5b80610e6f57503073ffffffffffffffffffffffffffffffffffffffff1663e985e9c582336040518363ffffffff1660e01b8152600401610e1e92919061287d565b60206040518083038186803b158015610e3657600080fd5b505afa158015610e4a573d6000803e3d6000fd5b505050506040513d601f19601f82011682018060405250810190610e6e919061248b565b5b610e7857600080fd5b610e828483611a39565b610ec1576040517f08c379a0000000000000000000000000000000000000000000000000000000008152600401610eb89061292f565b60405180910390fd5b6002805490508210610f08576040517f08c379a0000000000000000000000000000000000000000000000000000000008152600401610eff9061294f565b60405180910390fd5b610f13848484611b67565b50505050565b60006060806060600080600080600080600060018c81548110610f3f57610f3e612efc565b5b90600052602060002090600802016040518061014001604052908160008201548152602001600182018054610f7390612dc3565b80601f0160208091040260200160405190810160405280929190818152602001828054610f9f90612dc3565b8015610fec5780601f10610fc157610100808354040283529160200191610fec565b820191906000526020600020905b815481529060010190602001808311610fcf57829003601f168201915b5050505050815260200160028201805461100590612dc3565b80601f016020809104026020016040519081016040528092919081815260200182805461103190612dc3565b801561107e5780601f106110535761010080835404028352916020019161107e565b820191906000526020600020905b81548152906001019060200180831161106157829003601f168201915b5050505050815260200160038201805461109790612dc3565b80601f01602080910402602001604051908101604052809291908181526020018280546110c390612dc3565b80156111105780601f106110e557610100808354040283529160200191611110565b820191906000526020600020905b8154815290600101906020018083116110f357829003601f168201915b505050505081526020016004820160009054906101000a900467ffffffffffffffff1667ffffffffffffffff1667ffffffffffffffff1681526020016004820160089054906101000a900467ffffffffffffffff1667ffffffffffffffff1667ffffffffffffffff1681526020016004820160109054906101000a900467ffffffffffffffff1667ffffffffffffffff1667ffffffffffffffff16815260200160058201548152602001600682015481526020016007820154815250509050806000015181602001518260400151836060015184608001518560a001518660c001518760e001518861010001518961012001519a509a509a509a509a509a509a509a509a509a50509193959799509193959799565b60036020528060005260406000206000915090505481565b600080604051806080016040528087815260200186815260200185815260200184815250905060028190806001815401808255809150506001900390600052602060002090600402016000909190919091506000820151816000015560208201518160010190805190602001906112b59291906120c7565b506040820151816002015560608201518160030190805190602001906112dc9291906120c7565b505050600060016002805490506112f39190612c89565b90507ffc7b8b101cc9892b552b7510db8bc490e033d5fc25917e442ea508629aa43bf38187878760405161132a9493929190612aec565b60405180910390a18092505050949350505050565b6000806040518061014001604052808d81526020018c81526020018b81526020018a81526020018967ffffffffffffffff1681526020018867ffffffffffffffff1681526020018767ffffffffffffffff1681526020018667ffffffffffffffff16815260200185815260200184815250905060018190806001815401808255809150506001900390600052602060002090600802016000909190919091506000820151816000015560208201518160010190805190602001906114049291906120c7565b5060408201518160020190805190602001906114219291906120c7565b50606082015181600301908051906020019061143e9291906120c7565b5060808201518160040160006101000a81548167ffffffffffffffff021916908367ffffffffffffffff16021790555060a08201518160040160086101000a81548167ffffffffffffffff021916908367ffffffffffffffff16021790555060c08201518160040160106101000a81548167ffffffffffffffff021916908367ffffffffffffffff16021790555060e082015181600501556101008201518160060155610120820151816007015550506000600180805490506115019190612c89565b90507f26311033641a922a8506d77e30d988fb632d25f33311fba73b86cbf8f757041f818d8d8d8d8d8d8d8d8d6040516115449a99989796959493929190612a3b565b60405180910390a180925050509a9950505050505050505050565b61157a8383836040518060200160405280600081525061194b565b505050565b60006005600083815260200190815260200160002060009054906101000a900473ffffffffffffffffffffffffffffffffffffffff169050919050565b6000600460008373ffffffffffffffffffffffffffffffffffffffff1673ffffffffffffffffffffffffffffffffffffffff168152602001908152602001600020549050919050565b6002818154811061161557600080fd5b906000526020600020906004020160009150905080600001549080600101805461163e90612dc3565b80601f016020809104026020016040519081016040528092919081815260200182805461166a90612dc3565b80156116b75780601f1061168c576101008083540402835291602001916116b7565b820191906000526020600020905b81548152906001019060200180831161169a57829003601f168201915b5050505050908060020154908060030180546116d290612dc3565b80601f01602080910402602001604051908101604052809291908181526020018280546116fe90612dc3565b801561174b5780601f106117205761010080835404028352916020019161174b565b820191906000526020600020905b81548152906001019060200180831161172e57829003601f168201915b5050505050905084565b6040518060400160405280600481526020017f464243500000000000000000000000000000000000000000000000000000000081525081565b60006117b16064612710846117a39190612bfe565b611d1290919063ffffffff16565b9050919050565b600073ffffffffffffffffffffffffffffffffffffffff168273ffffffffffffffffffffffffffffffffffffffff1614156117f257600080fd5b3373ffffffffffffffffffffffffffffffffffffffff168273ffffffffffffffffffffffffffffffffffffffff16141561182b57600080fd5b6118358282611d28565b8173ffffffffffffffffffffffffffffffffffffffff163373ffffffffffffffffffffffffffffffffffffffff167f17307eab39ab6107e8899845ad3d59bd9653f200f220920489ca2b5937696c318360405161189291906128f2565b60405180910390a35050565b60046020528060005260406000206000915090505481565b600073ffffffffffffffffffffffffffffffffffffffff168273ffffffffffffffffffffffffffffffffffffffff1614156118f057600080fd5b3073ffffffffffffffffffffffffffffffffffffffff168273ffffffffffffffffffffffffffffffffffffffff16141561192957600080fd5b6119333382611a39565b61193c57600080fd5b611947338383611b67565b5050565b61195733858585611dc0565b61196057600080fd5b61196c84848484611f6e565b50505050565b60056020528060005260406000206000915054906101000a900473ffffffffffffffffffffffffffffffffffffffff1681565b6000600760008473ffffffffffffffffffffffffffffffffffffffff1673ffffffffffffffffffffffffffffffffffffffff16815260200190815260200160002060008373ffffffffffffffffffffffffffffffffffffffff1673ffffffffffffffffffffffffffffffffffffffff16815260200190815260200160002060009054906101000a900460ff16905092915050565b60008273ffffffffffffffffffffffffffffffffffffffff166005600084815260200190815260200160002060009054906101000a900473ffffffffffffffffffffffffffffffffffffffff1673ffffffffffffffffffffffffffffffffffffffff1614905092915050565b816006600083815260200190815260200160002060006101000a81548173ffffffffffffffffffffffffffffffffffffffff021916908373ffffffffffffffffffffffffffffffffffffffff1602179055505050565b60008273ffffffffffffffffffffffffffffffffffffffff166006600084815260200190815260200160002060009054906101000a900473ffffffffffffffffffffffffffffffffffffffff1673ffffffffffffffffffffffffffffffffffffffff1614905092915050565b600360008373ffffffffffffffffffffffffffffffffffffffff1673ffffffffffffffffffffffffffffffffffffffff1681526020019081526020016000206000815480929190611bb790612e26565b91905055506005600082815260200190815260200160002060009054906101000a900473ffffffffffffffffffffffffffffffffffffffff169150600073ffffffffffffffffffffffffffffffffffffffff168373ffffffffffffffffffffffffffffffffffffffff1614611cb257600360008473ffffffffffffffffffffffffffffffffffffffff1673ffffffffffffffffffffffffffffffffffffffff1681526020019081526020016000206000815480929190611c7690612d99565b91905055506006600082815260200190815260200160002060006101000a81549073ffffffffffffffffffffffffffffffffffffffff02191690555b808273ffffffffffffffffffffffffffffffffffffffff168473ffffffffffffffffffffffffffffffffffffffff167fddf252ad1be2c89b69c2b068fc378daa952ba7f163c4a11628f55a4df523b3ef60405160405180910390a4505050565b60008183611d209190612c2f565b905092915050565b80600760003373ffffffffffffffffffffffffffffffffffffffff1673ffffffffffffffffffffffffffffffffffffffff16815260200190815260200160002060008473ffffffffffffffffffffffffffffffffffffffff1673ffffffffffffffffffffffffffffffffffffffff16815260200190815260200160002060006101000a81548160ff0219169083151502179055505050565b60006002805490508210611dd357600080fd5b600073ffffffffffffffffffffffffffffffffffffffff168373ffffffffffffffffffffffffffffffffffffffff161415611e0d57600080fd5b60006005600084815260200190815260200160002060009054906101000a900473ffffffffffffffffffffffffffffffffffffffff1690508073ffffffffffffffffffffffffffffffffffffffff168473ffffffffffffffffffffffffffffffffffffffff161415611e7e57600080fd5b611e888584611a39565b611e9157600080fd5b8473ffffffffffffffffffffffffffffffffffffffff168673ffffffffffffffffffffffffffffffffffffffff161480611ed15750611ed08684611afb565b5b80611f6357503073ffffffffffffffffffffffffffffffffffffffff1663e985e9c582886040518363ffffffff1660e01b8152600401611f1292919061287d565b60206040518083038186803b158015611f2a57600080fd5b505afa158015611f3e573d6000803e3d6000fd5b505050506040513d601f19601f82011682018060405250810190611f62919061248b565b5b915050949350505050565b611f79848484611b67565b611f8584848484611f94565b611f8e57600080fd5b50505050565b6000611f9f846120ae565b611fac57600190506120a6565b60008473ffffffffffffffffffffffffffffffffffffffff1663150b7a02338887876040518563ffffffff1660e01b8152600401611fed94939291906128a6565b602060405180830381600087803b15801561200757600080fd5b505af115801561201b573d6000803e3d6000fd5b505050506040513d601f19601f8201168201806040525081019061203f91906124b8565b90507f150b7a023d4804d13e8c85fb27262cb750cf6ba9f9dd3bb30d90f482ceeb4b1f7bffffffffffffffffffffffffffffffffffffffffffffffffffffffff1916817bffffffffffffffffffffffffffffffffffffffffffffffffffffffff1916149150505b949350505050565b600080823b905060008163ffffffff1611915050919050565b8280546120d390612dc3565b90600052602060002090601f0160209004810192826120f5576000855561213c565b82601f1061210e57805160ff191683800117855561213c565b8280016001018555821561213c579182015b8281111561213b578251825591602001919060010190612120565b5b509050612149919061214d565b5090565b5b8082111561216657600081600090555060010161214e565b5090565b600061217d61217884612b64565b612b3f565b90508281526020810184848401111561219957612198612f5f565b5b6121a4848285612d57565b509392505050565b60006121bf6121ba84612b95565b612b3f565b9050828152602081018484840111156121db576121da612f5f565b5b6121e6848285612d57565b509392505050565b6000813590506121fd81612fd1565b92915050565b60008135905061221281612fe8565b92915050565b60008151905061222781612fe8565b92915050565b60008151905061223c81612fff565b92915050565b600082601f83011261225757612256612f5a565b5b813561226784826020860161216a565b91505092915050565b600082601f83011261228557612284612f5a565b5b81356122958482602086016121ac565b91505092915050565b6000813590506122ad81613016565b92915050565b6000813590506122c28161302d565b92915050565b6000602082840312156122de576122dd612f69565b5b60006122ec848285016121ee565b91505092915050565b6000806040838503121561230c5761230b612f69565b5b600061231a858286016121ee565b925050602061232b858286016121ee565b9150509250929050565b60008060006060848603121561234e5761234d612f69565b5b600061235c868287016121ee565b935050602061236d868287016121ee565b925050604061237e8682870161229e565b9150509250925092565b600080600080608085870312156123a2576123a1612f69565b5b60006123b0878288016121ee565b94505060206123c1878288016121ee565b93505060406123d28782880161229e565b925050606085013567ffffffffffffffff8111156123f3576123f2612f64565b5b6123ff87828801612242565b91505092959194509250565b6000806040838503121561242257612421612f69565b5b6000612430858286016121ee565b925050602061244185828601612203565b9150509250929050565b6000806040838503121561246257612461612f69565b5b6000612470858286016121ee565b92505060206124818582860161229e565b9150509250929050565b6000602082840312156124a1576124a0612f69565b5b60006124af84828501612218565b91505092915050565b6000602082840312156124ce576124cd612f69565b5b60006124dc8482850161222d565b91505092915050565b6000602082840312156124fb576124fa612f69565b5b60006125098482850161229e565b91505092915050565b6000806000806000806000806000806101408b8d03121561253657612535612f69565b5b60006125448d828e0161229e565b9a505060208b013567ffffffffffffffff81111561256557612564612f64565b5b6125718d828e01612270565b99505060408b013567ffffffffffffffff81111561259257612591612f64565b5b61259e8d828e01612270565b98505060608b013567ffffffffffffffff8111156125bf576125be612f64565b5b6125cb8d828e01612270565b97505060806125dc8d828e016122b3565b96505060a06125ed8d828e016122b3565b95505060c06125fe8d828e016122b3565b94505060e061260f8d828e016122b3565b9350506101006126218d828e0161229e565b9250506101206126338d828e0161229e565b9150509295989b9194979a5092959850565b6000806000806080858703121561265f5761265e612f69565b5b600061266d8782880161229e565b945050602085013567ffffffffffffffff81111561268e5761268d612f64565b5b61269a87828801612270565b93505060406126ab8782880161229e565b925050606085013567ffffffffffffffff8111156126cc576126cb612f64565b5b6126d887828801612270565b91505092959194509250565b600080600080600060a08688031215612700576126ff612f69565b5b600061270e8882890161229e565b955050602061271f8882890161229e565b94505060406127308882890161229e565b9350506060612741888289016121ee565b9250506080612752888289016121ee565b9150509295509295909350565b61276881612cbd565b82525050565b61277781612ccf565b82525050565b600061278882612bc6565b6127928185612bdc565b93506127a2818560208601612d66565b6127ab81612f6e565b840191505092915050565b60006127c182612bd1565b6127cb8185612bed565b93506127db818560208601612d66565b6127e481612f6e565b840191505092915050565b60006127fc601783612bed565b915061280782612f7f565b602082019050919050565b600061281f601283612bed565b915061282a82612fa8565b602082019050919050565b61283e81612d27565b82525050565b61284d81612d45565b82525050565b61285c81612d31565b82525050565b6000602082019050612877600083018461275f565b92915050565b6000604082019050612892600083018561275f565b61289f602083018461275f565b9392505050565b60006080820190506128bb600083018761275f565b6128c8602083018661275f565b6128d56040830185612835565b81810360608301526128e7818461277d565b905095945050505050565b6000602082019050612907600083018461276e565b92915050565b6000602082019050818103600083015261292781846127b6565b905092915050565b60006020820190508181036000830152612948816127ef565b9050919050565b6000602082019050818103600083015261296881612812565b9050919050565b60006020820190506129846000830184612835565b92915050565b6000610140820190506129a0600083018d612835565b81810360208301526129b2818c6127b6565b905081810360408301526129c6818b6127b6565b905081810360608301526129da818a6127b6565b90506129e96080830189612853565b6129f660a0830188612853565b612a0360c0830187612853565b612a1060e0830186612835565b612a1e610100830185612835565b612a2c610120830184612835565b9b9a5050505050505050505050565b600061014082019050612a51600083018d612835565b8181036020830152612a63818c6127b6565b90508181036040830152612a77818b6127b6565b90508181036060830152612a8b818a6127b6565b9050612a9a6080830189612853565b612aa760a0830188612853565b612ab460c0830187612853565b612ac160e0830186612844565b612acf610100830185612835565b612add610120830184612835565b9b9a5050505050505050505050565b6000608082019050612b016000830187612835565b8181036020830152612b1381866127b6565b9050612b226040830185612835565b8181036060830152612b3481846127b6565b905095945050505050565b6000612b49612b5a565b9050612b558282612df5565b919050565b6000604051905090565b600067ffffffffffffffff821115612b7f57612b7e612f2b565b5b612b8882612f6e565b9050602081019050919050565b600067ffffffffffffffff821115612bb057612baf612f2b565b5b612bb982612f6e565b9050602081019050919050565b600081519050919050565b600081519050919050565b600082825260208201905092915050565b600082825260208201905092915050565b6000612c0982612d27565b9150612c1483612d27565b925082612c2457612c23612e9e565b5b828204905092915050565b6000612c3a82612d27565b9150612c4583612d27565b9250817fffffffffffffffffffffffffffffffffffffffffffffffffffffffffffffffff0483118215151615612c7e57612c7d612e6f565b5b828202905092915050565b6000612c9482612d27565b9150612c9f83612d27565b925082821015612cb257612cb1612e6f565b5b828203905092915050565b6000612cc882612d07565b9050919050565b60008115159050919050565b60007fffffffff0000000000000000000000000000000000000000000000000000000082169050919050565b600073ffffffffffffffffffffffffffffffffffffffff82169050919050565b6000819050919050565b600067ffffffffffffffff82169050919050565b6000612d5082612d31565b9050919050565b82818337600083830152505050565b60005b83811015612d84578082015181840152602081019050612d69565b83811115612d93576000848401525b50505050565b6000612da482612d27565b91506000821415612db857612db7612e6f565b5b600182039050919050565b60006002820490506001821680612ddb57607f821691505b60208210811415612def57612dee612ecd565b5b50919050565b612dfe82612f6e565b810181811067ffffffffffffffff82111715612e1d57612e1c612f2b565b5b80604052505050565b6000612e3182612d27565b91507fffffffffffffffffffffffffffffffffffffffffffffffffffffffffffffffff821415612e6457612e63612e6f565b5b600182019050919050565b7f4e487b7100000000000000000000000000000000000000000000000000000000600052601160045260246000fd5b7f4e487b7100000000000000000000000000000000000000000000000000000000600052601260045260246000fd5b7f4e487b7100000000000000000000000000000000000000000000000000000000600052602260045260246000fd5b7f4e487b7100000000000000000000000000000000000000000000000000000000600052603260045260246000fd5b7f4e487b7100000000000000000000000000000000000000000000000000000000600052604160045260246000fd5b600080fd5b600080fd5b600080fd5b600080fd5b6000601f19601f8301169050919050565b7f46726f6d206973206e6f7420746f6b656e206f776e6572000000000000000000600082015250565b7f546f6b656e204944206e6f742056414c49440000000000000000000000000000600082015250565b612fda81612cbd565b8114612fe557600080fd5b50565b612ff181612ccf565b8114612ffc57600080fd5b50565b61300881612cdb565b811461301357600080fd5b50565b61301f81612d27565b811461302a57600080fd5b50565b61303681612d31565b811461304157600080fd5b5056fea2646970667358221220584d683af57f6a4bf47495d8affdadbac71d79b282c27c6cadb7669e0493904b64736f6c63430008060033",
  "immutableReferences": {},
  "source": "// SPDX-License-Identifier: MIT\npragma solidity ^0.8.6;\npragma experimental ABIEncoderV2;\nimport \"./IERC721.sol\";\nimport \"./IERC721Receiver.sol\";\nimport \"./Receipt.sol\";\nimport \"@openzeppelin/contracts/utils/math/SafeMath.sol\";\ncontract NFT is IERC721, Receipt {\n    using SafeMath for uint256;\n    //Name and ticker symbol subject to change, just for Demo\n    string public override constant name = \"Farm Bit Collateral Protocol\";\n    string public override constant symbol = \"FBCP\";\n    bytes4 internal constant MAGIC_ERC721_RECEIVED = bytes4(keccak256(\"onERC721Received(address,address,uint256,bytes)\"));\n        /**\n     *  bytes4(keccak256('balanceOf(address)')) == 0x70a08231\n     *  bytes4(keccak256('ownerOf(uint256)')) == 0x6352211e\n     *  bytes4(keccak256('approve(address, uint256)')) == 0x095ea7b3\n     *  bytes4(keccak256('getApproved(uint256)')) == 0x081812fc\n     *  bytes4(keccak256('setApprovalForAll(address, bool)')) == 0xa22cb465\n     *  bytes4(keccak256('isApprovedForAll(address, address)')) == 0xe985e9c5\n     *  bytes4(keccak256('transferFrom(address, address, uint256)')) == 0x23b872dd\n     *  bytes4(keccak256('safeTransferFrom(address, address, uint256)')) == 0x42842e0e\n     *  bytes4(keccak256('safeTransferFrom(address, address, uint256, bytes)')) == 0xb88d4fde\n     *  \n     *  => 0x70a08231 ^ 0x6352211e ^ 0x095ea7b3 ^ 0x081812fc ^\n     *     0xa22cb465 ^ 0xe985e9c5 ^ 0x23b872dd ^ 0x42842e0e ^ 0xb88d4fde == 0x80ac58cd\n     */\n    bytes4 private constant _INTERFACE_ID_ERC721 = 0x80ac58cd;\n\n    /**\n     *  bytes4(keccak256('supportsInterface(bytes4)'));\n    */\n    bytes4 private constant _INTERFACE_ID_ERC165 = 0x01ffc9a7;\n    struct Loan{\n        uint256 id;\n        string required_loan_duration;\n        uint256 amount;\n        string details_of_receipt;\n    }\n    Loan[] public Loans;\n    mapping(address => uint256) public balances;\n    mapping(address => uint256) public loanIncites;\n    mapping(uint256 => address) public loanIdMapping;\n    mapping(uint256 => address) public loanIndexToApproved;\n    mapping(address => mapping(address => bool)) private _collateralManagerApproval;\n\n    event ApplicationMade(\n        uint256 newLoanId,\n        string required_loan_duration,\n        uint256 amount,\n        string details_of_receipt\n    );\n    function loanApplication(\n        uint256 _id,\n        string memory _required_loan_duration,\n        uint256 _amount,\n        string  memory _details_of_receipt\n    ) external returns (uint256) {\n        Loan memory _loan = Loan({\n            id:_id,\n            required_loan_duration: string(_required_loan_duration),\n            amount: uint256(_amount),\n            details_of_receipt: string(_details_of_receipt)\n        });\n        Loans.push(_loan);\n        uint256 newloanId = Loans.length-1;\n        emit ApplicationMade(newloanId, _required_loan_duration, _amount, _details_of_receipt);\n        return newloanId;\n    }\n    function getLoans(uint256 _id) external view returns(\n        uint256 id,\n        string memory required_loan_duration,\n        uint256 amount,\n        string memory details_of_receipt\n    ) {\n        return (\n         Loans[_id].id,\n         Loans[_id].required_loan_duration,\n         Loans[_id].amount,\n         Loans[_id].details_of_receipt   \n        );\n    }\n    function totalSupply() external view override returns (uint256 total){\n        return Loans.length;\n    }\n    function balanceOf(address owner) external view override returns (uint256 balance){\n        return loanIncites[owner];\n    }\n    function ownerOf(uint256 tokenId) public view returns (address owner) {\n        return loanIdMapping[tokenId];\n    }\n    function transfer(address to, uint256 tokenId) external override {\n        require(address(to) != address(0));\n        require(to != address(this));\n        require(_owns(msg.sender, tokenId));\n        _transfer(msg.sender,to,tokenId);\n    }\n    function _transfer(address _from, address _to, uint256 _tokenId) internal {\n        balances[_to]++;\n        _to=loanIdMapping[_tokenId];\n        if(_from != address(0)) {\n            balances[_from]--;\n            delete loanIndexToApproved[_tokenId];\n        }\n        emit Transfer(_from, _to, _tokenId);\n    }\n    function _owns(address _claimant, uint256 _tokenId) internal view returns(bool){\n        return loanIdMapping[_tokenId] == _claimant;\n    }\n    function approve(address _approved, uint256 _tokenId) public override payable {\n        require(_approved != address(0));\n        require(_owns(msg.sender, _tokenId));\n        _approve(_approved, _tokenId);\n        emit Approval(loanIdMapping[_tokenId], _approved, _tokenId);\n    }\n    function setApprovalForAll(address operator, bool _approved) external override {\n        require(operator != address(0));\n        require(operator !=msg.sender);\n        _setApprovalForAll(operator, _approved);\n        emit ApprovalForAll(msg.sender, operator, _approved);\n\n    }\n    function _setApprovalForAll(address _operator, bool _approved) internal{\n        _collateralManagerApproval[msg.sender][_operator] = _approved;\n    }\n    function getApproved(uint256 _tokenId) external view override returns (address){\n        require(_tokenId < Loans.length);\n        return loanIndexToApproved[_tokenId];\n    }\n    function isApprovedForAll(address _owner, address _operator) external override view returns (bool){\n        return _collateralManagerApproval[_owner][_operator];\n    }\n    function _checkERC721Support(address _from, address _to, uint256 _tokenId, bytes memory _data) internal returns (bool) {\n        if (!_isContract(_to)) {\n            return true;\n        }\n        bytes4 returnData = IERC721Receiver(_to).onERC721Received(msg.sender, _from, _tokenId, _data);\n        return returnData == MAGIC_ERC721_RECEIVED;\n    }\n    function _isContract(address _to) internal view returns (bool) {\n        uint32 size;\n        assembly {\n            size := extcodesize(_to)\n        }\n        return size > 0;\n    }\n    function safeTransferFrom(address _from, address _to, uint256 _tokenId, bytes memory data) public override payable {\n        require(_isApprovedOrOwner(msg.sender, _from, _to, _tokenId));\n        _safeTransfer(_from, _to, _tokenId, data);\n    }\n    function _safeTransfer(address from, address to, uint256 tokenId, bytes memory _data) internal {\n        _transfer(from, to, tokenId);\n        require(_checkERC721Support(from, to, tokenId, _data));\n    }\n    function safeTransferFrom(address _from, address _to, uint256 _tokenId) external override payable {\n        safeTransferFrom(_from, _to, _tokenId, \"\");\n    }\n    function transferFrom(address _from, address _to, uint256 _tokenId) external override payable{\n        require(_to != address(0));\n        address owner = loanIdMapping[_tokenId];\n        require(_to != owner);\n        require(msg.sender == _from || approvedFor(msg.sender, _tokenId) || this.isApprovedForAll(owner, msg.sender));\n        require(_owns(_from, _tokenId), \"From is not token owner\");\n        require(_tokenId < Loans.length, \"Token ID not VALID\");\n        _transfer(_from, _to, _tokenId);\n    }\n    function _approve(address _approved, uint256 _tokenId) private {\n        loanIndexToApproved[_tokenId] = _approved;\n    }\n    function approvedFor(address claimant, uint256 tokenId) internal view returns(bool){\n        return loanIndexToApproved[tokenId] == claimant;\n    }\n\n    function _isApprovedOrOwner(address spender, address _from, address _to, uint256 _tokenId) private view returns(bool) {\n        require(_tokenId < Loans.length);\n        require(_to != address(0));\n        address owner = loanIdMapping[_tokenId];\n        require(_to != owner);\n        require(_owns(_from, _tokenId));\n        //Error at approve(spender, _tokenId)\n        return (spender == _from || approvedFor(spender, _tokenId) || this.isApprovedForAll(owner, spender) );\n    }\n   \n    \n    function mintNFT(uint256 receiptId, uint256 amount, uint collateral, address _owner, address _operator) external view returns(bool) {\n        require(receiptId > 0);\n        require(collateral > amount);\n         return _collateralManagerApproval[_owner][_operator];\n    }\n\n\n\n\n\n\n\n\n    function calculateFee(uint amount) external pure returns(uint) {\n        //100 basis points = 1 pct\n        return (amount /10000).mul(100);\n    }\n\n}",
  "sourcePath": "/Users/heyyehudes/Documents/Farmbit_Demo/Project-Demo/contracts/NFT.sol",
  "compiler": {
    "name": "solc",
    "version": "0.8.6+commit.11564f7e.Emscripten.clang"
  },
  "schemaVersion": "3.3.1",
  "updatedAt": "2021-08-05T00:21:46.941Z",
  "networkType": "ethereum",
  "devdoc": {
    "kind": "dev",
    "methods": {
      "getApproved(uint256)": {
        "details": "Throws if `_tokenId` is not a valid NFT.",
        "params": {
          "_tokenId": "The NFT to find the approved address for"
        },
        "returns": {
          "_0": "The approved address for this NFT, or the zero address if there is none"
        }
      },
      "isApprovedForAll(address,address)": {
        "params": {
          "_operator": "The address that acts on behalf of the owner",
          "_owner": "The address that owns the NFTs"
        },
        "returns": {
          "_0": "True if `_operator` is an approved operator for `_owner`, false otherwise"
        }
      },
      "safeTransferFrom(address,address,uint256)": {
        "details": "This works identically to the other function with an extra data parameter,  except this function just sets data to \"\".",
        "params": {
          "_from": "The current owner of the NFT",
          "_to": "The new owner",
          "_tokenId": "The NFT to transfer"
        }
      },
      "safeTransferFrom(address,address,uint256,bytes)": {
        "details": "Safely transfers `tokenId` token from `from` to `to`, checking first that contract recipients are aware of the ERC721 protocol to prevent tokens from being forever locked. Requirements: - `from` cannot be the zero address. - `to` cannot be the zero address. - `tokenId` token must exist and be owned by `from`. - If the caller is not `from`, it must be have been allowed to move this token by either {approve} or {setApprovalForAll}. - If `to` refers to a smart contract, it must implement {IERC721Receiver-onERC721Received}, which is called upon a safe transfer. Emits a {Transfer} event."
      }
    },
    "version": 1
  },
  "userdoc": {
    "kind": "user",
    "methods": {
      "getApproved(uint256)": {
        "notice": "Get the approved address for a single NFT"
      },
      "isApprovedForAll(address,address)": {
        "notice": "Query if an address is an authorized operator for another address"
      },
      "safeTransferFrom(address,address,uint256)": {
        "notice": "Transfers the ownership of an NFT from one address to another address"
      }
    },
    "version": 1
  }
}