{
  "contractName": "NFT",
  "abi": [
    {
      "anonymous": false,
      "inputs": [
        {
          "indexed": false,
          "internalType": "uint256",
          "name": "newLoanId",
          "type": "uint256"
        },
        {
          "indexed": false,
          "internalType": "string",
          "name": "required_loan_duration",
          "type": "string"
        },
        {
          "indexed": false,
          "internalType": "uint256",
          "name": "amount",
          "type": "uint256"
        },
        {
          "indexed": false,
          "internalType": "string",
          "name": "details_of_receipt",
          "type": "string"
        }
      ],
      "name": "ApplicationMade",
      "type": "event"
    },
    {
      "anonymous": false,
      "inputs": [
        {
          "indexed": true,
          "internalType": "address",
          "name": "owner",
          "type": "address"
        },
        {
          "indexed": true,
          "internalType": "address",
          "name": "approved",
          "type": "address"
        },
        {
          "indexed": true,
          "internalType": "uint256",
          "name": "tokenId",
          "type": "uint256"
        }
      ],
      "name": "Approval",
      "type": "event"
    },
    {
      "anonymous": false,
      "inputs": [
        {
          "indexed": true,
          "internalType": "address",
          "name": "owner",
          "type": "address"
        },
        {
          "indexed": true,
          "internalType": "address",
          "name": "operator",
          "type": "address"
        },
        {
          "indexed": false,
          "internalType": "bool",
          "name": "approved",
          "type": "bool"
        }
      ],
      "name": "ApprovalForAll",
      "type": "event"
    },
    {
      "anonymous": false,
      "inputs": [
        {
          "indexed": false,
          "internalType": "uint256",
          "name": "ReceiptId",
          "type": "uint256"
        },
        {
          "indexed": false,
          "internalType": "string",
          "name": "shipper",
          "type": "string"
        },
        {
          "indexed": false,
          "internalType": "string",
          "name": "cosignee",
          "type": "string"
        },
        {
          "indexed": false,
          "internalType": "string",
          "name": "destination",
          "type": "string"
        },
        {
          "indexed": false,
          "internalType": "uint64",
          "name": "unitWeight",
          "type": "uint64"
        },
        {
          "indexed": false,
          "internalType": "uint64",
          "name": "numberOfPackages",
          "type": "uint64"
        },
        {
          "indexed": false,
          "internalType": "uint64",
          "name": "totalWeight",
          "type": "uint64"
        },
        {
          "indexed": false,
          "internalType": "uint256",
          "name": "itemId",
          "type": "uint256"
        },
        {
          "indexed": false,
          "internalType": "uint256",
          "name": "packageId",
          "type": "uint256"
        },
        {
          "indexed": false,
          "internalType": "uint256",
          "name": "date",
          "type": "uint256"
        }
      ],
      "name": "ReceiptIssued",
      "type": "event"
    },
    {
      "anonymous": false,
      "inputs": [
        {
          "indexed": true,
          "internalType": "address",
          "name": "from",
          "type": "address"
        },
        {
          "indexed": true,
          "internalType": "address",
          "name": "to",
          "type": "address"
        },
        {
          "indexed": true,
          "internalType": "uint256",
          "name": "tokenId",
          "type": "uint256"
        }
      ],
      "name": "Transfer",
      "type": "event"
    },
    {
      "inputs": [
        {
          "internalType": "uint256",
          "name": "",
          "type": "uint256"
        }
      ],
      "name": "Loans",
      "outputs": [
        {
          "internalType": "uint256",
          "name": "id",
          "type": "uint256"
        },
        {
          "internalType": "string",
          "name": "required_loan_duration",
          "type": "string"
        },
        {
          "internalType": "uint256",
          "name": "amount",
          "type": "uint256"
        },
        {
          "internalType": "string",
          "name": "details_of_receipt",
          "type": "string"
        }
      ],
      "stateMutability": "view",
      "type": "function",
      "constant": true
    },
    {
      "inputs": [
        {
          "internalType": "address",
          "name": "",
          "type": "address"
        }
      ],
      "name": "balances",
      "outputs": [
        {
          "internalType": "uint256",
          "name": "",
          "type": "uint256"
        }
      ],
      "stateMutability": "view",
      "type": "function",
      "constant": true
    },
    {
      "inputs": [
        {
          "internalType": "uint256",
          "name": "_id",
          "type": "uint256"
        },
        {
          "internalType": "string",
          "name": "_shipper",
          "type": "string"
        },
        {
          "internalType": "string",
          "name": "_cosignee",
          "type": "string"
        },
        {
          "internalType": "string",
          "name": "_destination",
          "type": "string"
        },
        {
          "internalType": "uint64",
          "name": "_unitWeight",
          "type": "uint64"
        },
        {
          "internalType": "uint64",
          "name": "_numberOfPackages",
          "type": "uint64"
        },
        {
          "internalType": "uint64",
          "name": "_totalWeight",
          "type": "uint64"
        },
        {
          "internalType": "uint64",
          "name": "_itemId",
          "type": "uint64"
        },
        {
          "internalType": "uint256",
          "name": "_packageId",
          "type": "uint256"
        },
        {
          "internalType": "uint256",
          "name": "_date",
          "type": "uint256"
        }
      ],
      "name": "issueReceipt",
      "outputs": [
        {
          "internalType": "uint256",
          "name": "",
          "type": "uint256"
        }
      ],
      "stateMutability": "nonpayable",
      "type": "function"
    },
    {
      "inputs": [
        {
          "internalType": "uint256",
          "name": "",
          "type": "uint256"
        }
      ],
      "name": "loanIdMapping",
      "outputs": [
        {
          "internalType": "address",
          "name": "",
          "type": "address"
        }
      ],
      "stateMutability": "view",
      "type": "function",
      "constant": true
    },
    {
      "inputs": [
        {
          "internalType": "address",
          "name": "",
          "type": "address"
        }
      ],
      "name": "loanIncites",
      "outputs": [
        {
          "internalType": "uint256",
          "name": "",
          "type": "uint256"
        }
      ],
      "stateMutability": "view",
      "type": "function",
      "constant": true
    },
    {
      "inputs": [
        {
          "internalType": "uint256",
          "name": "",
          "type": "uint256"
        }
      ],
      "name": "loanIndexToApproved",
      "outputs": [
        {
          "internalType": "address",
          "name": "",
          "type": "address"
        }
      ],
      "stateMutability": "view",
      "type": "function",
      "constant": true
    },
    {
      "inputs": [],
      "name": "name",
      "outputs": [
        {
          "internalType": "string",
          "name": "",
          "type": "string"
        }
      ],
      "stateMutability": "view",
      "type": "function",
      "constant": true
    },
    {
      "inputs": [
        {
          "internalType": "uint256",
          "name": "",
          "type": "uint256"
        }
      ],
      "name": "receipts",
      "outputs": [
        {
          "internalType": "uint256",
          "name": "id",
          "type": "uint256"
        },
        {
          "internalType": "string",
          "name": "shipper",
          "type": "string"
        },
        {
          "internalType": "string",
          "name": "cosignee",
          "type": "string"
        },
        {
          "internalType": "string",
          "name": "destination",
          "type": "string"
        },
        {
          "internalType": "uint64",
          "name": "unitWeight",
          "type": "uint64"
        },
        {
          "internalType": "uint64",
          "name": "numberOfPackages",
          "type": "uint64"
        },
        {
          "internalType": "uint64",
          "name": "totalWeight",
          "type": "uint64"
        },
        {
          "internalType": "uint256",
          "name": "itemId",
          "type": "uint256"
        },
        {
          "internalType": "uint256",
          "name": "packageId",
          "type": "uint256"
        },
        {
          "internalType": "uint256",
          "name": "date",
          "type": "uint256"
        }
      ],
      "stateMutability": "view",
      "type": "function",
      "constant": true
    },
    {
      "inputs": [
        {
          "internalType": "uint256",
          "name": "_id",
          "type": "uint256"
        }
      ],
      "name": "showReceipts",
      "outputs": [
        {
          "internalType": "uint256",
          "name": "",
          "type": "uint256"
        },
        {
          "internalType": "string",
          "name": "",
          "type": "string"
        },
        {
          "internalType": "string",
          "name": "",
          "type": "string"
        },
        {
          "internalType": "string",
          "name": "",
          "type": "string"
        },
        {
          "internalType": "uint64",
          "name": "",
          "type": "uint64"
        },
        {
          "internalType": "uint64",
          "name": "",
          "type": "uint64"
        },
        {
          "internalType": "uint64",
          "name": "",
          "type": "uint64"
        },
        {
          "internalType": "uint256",
          "name": "",
          "type": "uint256"
        },
        {
          "internalType": "uint256",
          "name": "",
          "type": "uint256"
        },
        {
          "internalType": "uint256",
          "name": "",
          "type": "uint256"
        }
      ],
      "stateMutability": "view",
      "type": "function",
      "constant": true
    },
    {
      "inputs": [],
      "name": "symbol",
      "outputs": [
        {
          "internalType": "string",
          "name": "",
          "type": "string"
        }
      ],
      "stateMutability": "view",
      "type": "function",
      "constant": true
    },
    {
      "inputs": [
        {
          "internalType": "uint256",
          "name": "_id",
          "type": "uint256"
        },
        {
          "internalType": "string",
          "name": "_required_loan_duration",
          "type": "string"
        },
        {
          "internalType": "uint256",
          "name": "_amount",
          "type": "uint256"
        },
        {
          "internalType": "string",
          "name": "_details_of_receipt",
          "type": "string"
        }
      ],
      "name": "loanApplication",
      "outputs": [
        {
          "internalType": "uint256",
          "name": "",
          "type": "uint256"
        }
      ],
      "stateMutability": "nonpayable",
      "type": "function"
    },
    {
      "inputs": [
        {
          "internalType": "uint256",
          "name": "_id",
          "type": "uint256"
        }
      ],
      "name": "getLoans",
      "outputs": [
        {
          "internalType": "uint256",
          "name": "id",
          "type": "uint256"
        },
        {
          "internalType": "string",
          "name": "required_loan_duration",
          "type": "string"
        },
        {
          "internalType": "uint256",
          "name": "amount",
          "type": "uint256"
        },
        {
          "internalType": "string",
          "name": "details_of_receipt",
          "type": "string"
        }
      ],
      "stateMutability": "view",
      "type": "function",
      "constant": true
    },
    {
      "inputs": [],
      "name": "totalSupply",
      "outputs": [
        {
          "internalType": "uint256",
          "name": "total",
          "type": "uint256"
        }
      ],
      "stateMutability": "view",
      "type": "function",
      "constant": true
    },
    {
      "inputs": [
        {
          "internalType": "address",
          "name": "owner",
          "type": "address"
        }
      ],
      "name": "balanceOf",
      "outputs": [
        {
          "internalType": "uint256",
          "name": "balance",
          "type": "uint256"
        }
      ],
      "stateMutability": "view",
      "type": "function",
      "constant": true
    },
    {
      "inputs": [
        {
          "internalType": "uint256",
          "name": "tokenId",
          "type": "uint256"
        }
      ],
      "name": "ownerOf",
      "outputs": [
        {
          "internalType": "address",
          "name": "owner",
          "type": "address"
        }
      ],
      "stateMutability": "view",
      "type": "function",
      "constant": true
    },
    {
      "inputs": [
        {
          "internalType": "address",
          "name": "to",
          "type": "address"
        },
        {
          "internalType": "uint256",
          "name": "tokenId",
          "type": "uint256"
        }
      ],
      "name": "transfer",
      "outputs": [],
      "stateMutability": "nonpayable",
      "type": "function"
    },
    {
      "inputs": [
        {
          "internalType": "address",
          "name": "_approved",
          "type": "address"
        },
        {
          "internalType": "uint256",
          "name": "_tokenId",
          "type": "uint256"
        }
      ],
      "name": "approve",
      "outputs": [],
      "stateMutability": "payable",
      "type": "function",
      "payable": true
    },
    {
      "inputs": [
        {
          "internalType": "address",
          "name": "operator",
          "type": "address"
        },
        {
          "internalType": "bool",
          "name": "_approved",
          "type": "bool"
        }
      ],
      "name": "setApprovalForAll",
      "outputs": [],
      "stateMutability": "nonpayable",
      "type": "function"
    },
    {
      "inputs": [
        {
          "internalType": "uint256",
          "name": "_tokenId",
          "type": "uint256"
        }
      ],
      "name": "getApproved",
      "outputs": [
        {
          "internalType": "address",
          "name": "",
          "type": "address"
        }
      ],
      "stateMutability": "view",
      "type": "function",
      "constant": true
    },
    {
      "inputs": [
        {
          "internalType": "address",
          "name": "_owner",
          "type": "address"
        },
        {
          "internalType": "address",
          "name": "_operator",
          "type": "address"
        }
      ],
      "name": "isApprovedForAll",
      "outputs": [
        {
          "internalType": "bool",
          "name": "",
          "type": "bool"
        }
      ],
      "stateMutability": "view",
      "type": "function",
      "constant": true
    },
    {
      "inputs": [
        {
          "internalType": "uint256",
          "name": "receiptId",
          "type": "uint256"
        },
        {
          "internalType": "uint256",
          "name": "amount",
          "type": "uint256"
        },
        {
          "internalType": "uint256",
          "name": "collateral",
          "type": "uint256"
        },
        {
          "internalType": "address",
          "name": "_owner",
          "type": "address"
        },
        {
          "internalType": "address",
          "name": "_operator",
          "type": "address"
        }
      ],
      "name": "mintNFT",
      "outputs": [
        {
          "internalType": "bool",
          "name": "",
          "type": "bool"
        }
      ],
      "stateMutability": "view",
      "type": "function",
      "constant": true
    },
    {
      "inputs": [
        {
          "internalType": "uint256",
          "name": "amount",
          "type": "uint256"
        }
      ],
      "name": "calculateFee",
      "outputs": [
        {
          "internalType": "uint256",
          "name": "",
          "type": "uint256"
        }
      ],
      "stateMutability": "pure",
      "type": "function",
      "constant": true
    },
    {
      "inputs": [
        {
          "internalType": "address",
          "name": "_from",
          "type": "address"
        },
        {
          "internalType": "address",
          "name": "_to",
          "type": "address"
        },
        {
          "internalType": "uint256",
          "name": "_tokenId",
          "type": "uint256"
        }
      ],
      "name": "safeTransferFrom",
      "outputs": [],
      "stateMutability": "payable",
      "type": "function",
      "payable": true
    },
    {
      "inputs": [
        {
          "internalType": "address",
          "name": "_from",
          "type": "address"
        },
        {
          "internalType": "address",
          "name": "_to",
          "type": "address"
        },
        {
          "internalType": "uint256",
          "name": "_tokenId",
          "type": "uint256"
        },
        {
          "internalType": "bytes",
          "name": "data",
          "type": "bytes"
        }
      ],
      "name": "safeTransferFrom",
      "outputs": [],
      "stateMutability": "payable",
      "type": "function",
      "payable": true
    },
    {
      "inputs": [
        {
          "internalType": "address",
          "name": "_from",
          "type": "address"
        },
        {
          "internalType": "address",
          "name": "_to",
          "type": "address"
        },
        {
          "internalType": "uint256",
          "name": "_tokenId",
          "type": "uint256"
        }
      ],
      "name": "transferFrom",
      "outputs": [],
      "stateMutability": "payable",
      "type": "function",
      "payable": true
    }
  ],
  "bytecode": "0x608060405234801561001057600080fd5b5060016000819055506130ab806100286000396000f3fe6080604052600436106101665760003560e01c80633d10d201116100d157806399a5d7471161008a578063a9059cbb11610064578063a9059cbb146105d7578063b88d4fde14610600578063dd2888171461061c578063e985e9c51461065957610166565b806399a5d74714610534578063a22cb46514610571578063a4f2c49d1461059a57610166565b80633d10d201146103f657806342842e0e146104335780636352211e1461044f57806370a082311461048c57806389b279e7146104c957806395d89b411461050957610166565b8063157fb4dd11610123578063157fb4dd146102b257806318160ddd146102ef57806323b872dd1461031a5780632472cdef1461033657806327e235e31461037c57806337725e9e146103b957610166565b8063069440f51461016b57806306fdde03146101a8578063081812fc146101d3578063095ea7b3146102105780630aed3ca11461022c5780630f7ee1ec1461026c575b600080fd5b34801561017757600080fd5b50610192600480360381019061018d9190612533565b610696565b60405161019f91906128b0565b60405180910390f35b3480156101b457600080fd5b506101bd6106c9565b6040516101ca919061295b565b60405180910390f35b3480156101df57600080fd5b506101fa60048036038101906101f59190612533565b610702565b60405161020791906128b0565b60405180910390f35b61022a60048036038101906102259190612499565b610750565b005b34801561023857600080fd5b50610253600480360381019061024e9190612533565b610839565b6040516102639493929190612b3a565b60405180910390f35b34801561027857600080fd5b50610293600480360381019061028e9190612533565b6109fe565b6040516102a99a999897969594939291906129d8565b60405180910390f35b3480156102be57600080fd5b506102d960048036038101906102d49190612732565b610c36565b6040516102e69190612940565b60405180910390f35b3480156102fb57600080fd5b50610304610ce5565b60405161031191906129bd565b60405180910390f35b610334600480360381019061032f9190612383565b610cf2565b005b34801561034257600080fd5b5061035d60048036038101906103589190612533565b610f19565b6040516103739a999897969594939291906129d8565b60405180910390f35b34801561038857600080fd5b506103a3600480360381019061039e9190612316565b611225565b6040516103b091906129bd565b60405180910390f35b3480156103c557600080fd5b506103e060048036038101906103db9190612693565b61123d565b6040516103ed91906129bd565b60405180910390f35b34801561040257600080fd5b5061041d60048036038101906104189190612560565b611346565b60405161042a91906129bd565b60405180910390f35b61044d60048036038101906104489190612383565b611566565b005b34801561045b57600080fd5b5061047660048036038101906104719190612533565b611586565b60405161048391906128b0565b60405180910390f35b34801561049857600080fd5b506104b360048036038101906104ae9190612316565b6115c3565b6040516104c091906129bd565b60405180910390f35b3480156104d557600080fd5b506104f060048036038101906104eb9190612533565b61160c565b6040516105009493929190612b3a565b60405180910390f35b34801561051557600080fd5b5061051e61175c565b60405161052b919061295b565b60405180910390f35b34801561054057600080fd5b5061055b60048036038101906105569190612533565b611795565b60405161056891906129bd565b60405180910390f35b34801561057d57600080fd5b5061059860048036038101906105939190612459565b6117c6565b005b3480156105a657600080fd5b506105c160048036038101906105bc9190612316565b6118ac565b6040516105ce91906129bd565b60405180910390f35b3480156105e357600080fd5b506105fe60048036038101906105f99190612499565b6118c4565b005b61061a600480360381019061061591906123d6565b611959565b005b34801561062857600080fd5b50610643600480360381019061063e9190612533565b611980565b60405161065091906128b0565b60405180910390f35b34801561066557600080fd5b50610680600480360381019061067b9190612343565b6119b3565b60405161068d9190612940565b60405180910390f35b60066020528060005260406000206000915054906101000a900473ffffffffffffffffffffffffffffffffffffffff1681565b6040518060400160405280601c81526020017f4661726d2042697420436f6c6c61746572616c2050726f746f636f6c0000000081525081565b6000600280549050821061071557600080fd5b6006600083815260200190815260200160002060009054906101000a900473ffffffffffffffffffffffffffffffffffffffff169050919050565b600073ffffffffffffffffffffffffffffffffffffffff168273ffffffffffffffffffffffffffffffffffffffff16141561078a57600080fd5b6107943382611a47565b61079d57600080fd5b6107a78282611ab3565b808273ffffffffffffffffffffffffffffffffffffffff166005600084815260200190815260200160002060009054906101000a900473ffffffffffffffffffffffffffffffffffffffff1673ffffffffffffffffffffffffffffffffffffffff167f8c5be1e5ebec7d5bd14f71427d1e84f3dd0314c0f7b2291e5b200ac8c7c3b92560405160405180910390a45050565b60006060600060606002858154811061085557610854612f2d565b5b9060005260206000209060040201600001546002868154811061087b5761087a612f2d565b5b9060005260206000209060040201600101600287815481106108a05761089f612f2d565b5b906000526020600020906004020160020154600288815481106108c6576108c5612f2d565b5b90600052602060002090600402016003018280546108e390612e3d565b80601f016020809104026020016040519081016040528092919081815260200182805461090f90612e3d565b801561095c5780601f106109315761010080835404028352916020019161095c565b820191906000526020600020905b81548152906001019060200180831161093f57829003601f168201915b5050505050925080805461096f90612e3d565b80601f016020809104026020016040519081016040528092919081815260200182805461099b90612e3d565b80156109e85780601f106109bd576101008083540402835291602001916109e8565b820191906000526020600020905b8154815290600101906020018083116109cb57829003601f168201915b5050505050905093509350935093509193509193565b60018181548110610a0e57600080fd5b9060005260206000209060080201600091509050806000015490806001018054610a3790612e3d565b80601f0160208091040260200160405190810160405280929190818152602001828054610a6390612e3d565b8015610ab05780601f10610a8557610100808354040283529160200191610ab0565b820191906000526020600020905b815481529060010190602001808311610a9357829003601f168201915b505050505090806002018054610ac590612e3d565b80601f0160208091040260200160405190810160405280929190818152602001828054610af190612e3d565b8015610b3e5780601f10610b1357610100808354040283529160200191610b3e565b820191906000526020600020905b815481529060010190602001808311610b2157829003601f168201915b505050505090806003018054610b5390612e3d565b80601f0160208091040260200160405190810160405280929190818152602001828054610b7f90612e3d565b8015610bcc5780601f10610ba157610100808354040283529160200191610bcc565b820191906000526020600020905b815481529060010190602001808311610baf57829003601f168201915b5050505050908060040160009054906101000a900467ffffffffffffffff16908060040160089054906101000a900467ffffffffffffffff16908060040160109054906101000a900467ffffffffffffffff1690806005015490806006015490806007015490508a565b6000808611610c4457600080fd5b848411610c5057600080fd5b600760008473ffffffffffffffffffffffffffffffffffffffff1673ffffffffffffffffffffffffffffffffffffffff16815260200190815260200160002060008373ffffffffffffffffffffffffffffffffffffffff1673ffffffffffffffffffffffffffffffffffffffff16815260200190815260200160002060009054906101000a900460ff16905095945050505050565b6000600280549050905090565b600073ffffffffffffffffffffffffffffffffffffffff168273ffffffffffffffffffffffffffffffffffffffff161415610d2c57600080fd5b60006005600083815260200190815260200160002060009054906101000a900473ffffffffffffffffffffffffffffffffffffffff1690508073ffffffffffffffffffffffffffffffffffffffff168373ffffffffffffffffffffffffffffffffffffffff161415610d9d57600080fd5b8373ffffffffffffffffffffffffffffffffffffffff163373ffffffffffffffffffffffffffffffffffffffff161480610ddd5750610ddc3383611b09565b5b80610e6f57503073ffffffffffffffffffffffffffffffffffffffff1663e985e9c582336040518363ffffffff1660e01b8152600401610e1e9291906128cb565b60206040518083038186803b158015610e3657600080fd5b505afa158015610e4a573d6000803e3d6000fd5b505050506040513d601f19601f82011682018060405250810190610e6e91906124d9565b5b610e7857600080fd5b610e828483611a47565b610ec1576040517f08c379a0000000000000000000000000000000000000000000000000000000008152600401610eb89061297d565b60405180910390fd5b6002805490508210610f08576040517f08c379a0000000000000000000000000000000000000000000000000000000008152600401610eff9061299d565b60405180910390fd5b610f13848484611b75565b50505050565b60006060806060600080600080600080600060018c81548110610f3f57610f3e612f2d565b5b90600052602060002090600802016040518061014001604052908160008201548152602001600182018054610f7390612e3d565b80601f0160208091040260200160405190810160405280929190818152602001828054610f9f90612e3d565b8015610fec5780601f10610fc157610100808354040283529160200191610fec565b820191906000526020600020905b815481529060010190602001808311610fcf57829003601f168201915b5050505050815260200160028201805461100590612e3d565b80601f016020809104026020016040519081016040528092919081815260200182805461103190612e3d565b801561107e5780601f106110535761010080835404028352916020019161107e565b820191906000526020600020905b81548152906001019060200180831161106157829003601f168201915b5050505050815260200160038201805461109790612e3d565b80601f01602080910402602001604051908101604052809291908181526020018280546110c390612e3d565b80156111105780601f106110e557610100808354040283529160200191611110565b820191906000526020600020905b8154815290600101906020018083116110f357829003601f168201915b505050505081526020016004820160009054906101000a900467ffffffffffffffff1667ffffffffffffffff1667ffffffffffffffff1681526020016004820160089054906101000a900467ffffffffffffffff1667ffffffffffffffff1667ffffffffffffffff1681526020016004820160109054906101000a900467ffffffffffffffff1667ffffffffffffffff1667ffffffffffffffff16815260200160058201548152602001600682015481526020016007820154815250509050806000015181602001518260400151836060015184608001518560a001518660c001518760e001518861010001518961012001519a509a509a509a509a509a509a509a509a509a50509193959799509193959799565b60036020528060005260406000206000915090505481565b600080604051806080016040528087815260200186815260200185815260200184815250905060028190806001815401808255809150506001900390600052602060002090600402016000909190919091506000820151816000015560208201518160010190805190602001906112b5929190612115565b506040820151816002015560608201518160030190805190602001906112dc929190612115565b50505060006112fa6001600280549050611d1e90919063ffffffff16565b90507ffc7b8b101cc9892b552b7510db8bc490e033d5fc25917e442ea508629aa43bf3818787876040516113319493929190612b3a565b60405180910390a18092505050949350505050565b6000806040518061014001604052808d81526020018c81526020018b81526020018a81526020018967ffffffffffffffff1681526020018867ffffffffffffffff1681526020018767ffffffffffffffff1681526020018667ffffffffffffffff168152602001858152602001848152509050600181908060018154018082558091505060019003906000526020600020906008020160009091909190915060008201518160000155602082015181600101908051906020019061140b929190612115565b506040820151816002019080519060200190611428929190612115565b506060820151816003019080519060200190611445929190612115565b5060808201518160040160006101000a81548167ffffffffffffffff021916908367ffffffffffffffff16021790555060a08201518160040160086101000a81548167ffffffffffffffff021916908367ffffffffffffffff16021790555060c08201518160040160106101000a81548167ffffffffffffffff021916908367ffffffffffffffff16021790555060e082015181600501556101008201518160060155610120820151816007015550506000600180805490506115089190612d2d565b90507f26311033641a922a8506d77e30d988fb632d25f33311fba73b86cbf8f757041f818d8d8d8d8d8d8d8d8d60405161154b9a99989796959493929190612a89565b60405180910390a180925050509a9950505050505050505050565b61158183838360405180602001604052806000815250611959565b505050565b60006005600083815260200190815260200160002060009054906101000a900473ffffffffffffffffffffffffffffffffffffffff169050919050565b6000600460008373ffffffffffffffffffffffffffffffffffffffff1673ffffffffffffffffffffffffffffffffffffffff168152602001908152602001600020549050919050565b6002818154811061161c57600080fd5b906000526020600020906004020160009150905080600001549080600101805461164590612e3d565b80601f016020809104026020016040519081016040528092919081815260200182805461167190612e3d565b80156116be5780601f10611693576101008083540402835291602001916116be565b820191906000526020600020905b8154815290600101906020018083116116a157829003601f168201915b5050505050908060020154908060030180546116d990612e3d565b80601f016020809104026020016040519081016040528092919081815260200182805461170590612e3d565b80156117525780601f1061172757610100808354040283529160200191611752565b820191906000526020600020905b81548152906001019060200180831161173557829003601f168201915b5050505050905084565b6040518060400160405280600481526020017f464243500000000000000000000000000000000000000000000000000000000081525081565b60006117bf60646117b161271085611d3490919063ffffffff16565b611d4a90919063ffffffff16565b9050919050565b600073ffffffffffffffffffffffffffffffffffffffff168273ffffffffffffffffffffffffffffffffffffffff16141561180057600080fd5b3373ffffffffffffffffffffffffffffffffffffffff168273ffffffffffffffffffffffffffffffffffffffff16141561183957600080fd5b6118438282611d60565b8173ffffffffffffffffffffffffffffffffffffffff163373ffffffffffffffffffffffffffffffffffffffff167f17307eab39ab6107e8899845ad3d59bd9653f200f220920489ca2b5937696c31836040516118a09190612940565b60405180910390a35050565b60046020528060005260406000206000915090505481565b600073ffffffffffffffffffffffffffffffffffffffff168273ffffffffffffffffffffffffffffffffffffffff1614156118fe57600080fd5b3073ffffffffffffffffffffffffffffffffffffffff168273ffffffffffffffffffffffffffffffffffffffff16141561193757600080fd5b6119413382611a47565b61194a57600080fd5b611955338383611b75565b5050565b61196533858585611df8565b61196e57600080fd5b61197a84848484611fa6565b50505050565b60056020528060005260406000206000915054906101000a900473ffffffffffffffffffffffffffffffffffffffff1681565b6000600760008473ffffffffffffffffffffffffffffffffffffffff1673ffffffffffffffffffffffffffffffffffffffff16815260200190815260200160002060008373ffffffffffffffffffffffffffffffffffffffff1673ffffffffffffffffffffffffffffffffffffffff16815260200190815260200160002060009054906101000a900460ff16905092915050565b60008273ffffffffffffffffffffffffffffffffffffffff166005600084815260200190815260200160002060009054906101000a900473ffffffffffffffffffffffffffffffffffffffff1673ffffffffffffffffffffffffffffffffffffffff1614905092915050565b816006600083815260200190815260200160002060006101000a81548173ffffffffffffffffffffffffffffffffffffffff021916908373ffffffffffffffffffffffffffffffffffffffff1602179055505050565b60008273ffffffffffffffffffffffffffffffffffffffff166006600084815260200190815260200160002060009054906101000a900473ffffffffffffffffffffffffffffffffffffffff1673ffffffffffffffffffffffffffffffffffffffff1614905092915050565b611bc86001600360008573ffffffffffffffffffffffffffffffffffffffff1673ffffffffffffffffffffffffffffffffffffffff16815260200190815260200160002054611fcc90919063ffffffff16565b506005600082815260200190815260200160002060009054906101000a900473ffffffffffffffffffffffffffffffffffffffff169150600073ffffffffffffffffffffffffffffffffffffffff168373ffffffffffffffffffffffffffffffffffffffff1614611cbe57611c866001600360008673ffffffffffffffffffffffffffffffffffffffff1673ffffffffffffffffffffffffffffffffffffffff16815260200190815260200160002054611d1e90919063ffffffff16565b506006600082815260200190815260200160002060006101000a81549073ffffffffffffffffffffffffffffffffffffffff02191690555b808273ffffffffffffffffffffffffffffffffffffffff168473ffffffffffffffffffffffffffffffffffffffff167fddf252ad1be2c89b69c2b068fc378daa952ba7f163c4a11628f55a4df523b3ef60405160405180910390a4505050565b60008183611d2c9190612d2d565b905092915050565b60008183611d429190612ca2565b905092915050565b60008183611d589190612cd3565b905092915050565b80600760003373ffffffffffffffffffffffffffffffffffffffff1673ffffffffffffffffffffffffffffffffffffffff16815260200190815260200160002060008473ffffffffffffffffffffffffffffffffffffffff1673ffffffffffffffffffffffffffffffffffffffff16815260200190815260200160002060006101000a81548160ff0219169083151502179055505050565b60006002805490508210611e0b57600080fd5b600073ffffffffffffffffffffffffffffffffffffffff168373ffffffffffffffffffffffffffffffffffffffff161415611e4557600080fd5b60006005600084815260200190815260200160002060009054906101000a900473ffffffffffffffffffffffffffffffffffffffff1690508073ffffffffffffffffffffffffffffffffffffffff168473ffffffffffffffffffffffffffffffffffffffff161415611eb657600080fd5b611ec08584611a47565b611ec957600080fd5b8473ffffffffffffffffffffffffffffffffffffffff168673ffffffffffffffffffffffffffffffffffffffff161480611f095750611f088684611b09565b5b80611f9b57503073ffffffffffffffffffffffffffffffffffffffff1663e985e9c582886040518363ffffffff1660e01b8152600401611f4a9291906128cb565b60206040518083038186803b158015611f6257600080fd5b505afa158015611f76573d6000803e3d6000fd5b505050506040513d601f19601f82011682018060405250810190611f9a91906124d9565b5b915050949350505050565b611fb1848484611b75565b611fbd84848484611fe2565b611fc657600080fd5b50505050565b60008183611fda9190612c4c565b905092915050565b6000611fed846120fc565b611ffa57600190506120f4565b60008473ffffffffffffffffffffffffffffffffffffffff1663150b7a02338887876040518563ffffffff1660e01b815260040161203b94939291906128f4565b602060405180830381600087803b15801561205557600080fd5b505af1158015612069573d6000803e3d6000fd5b505050506040513d601f19601f8201168201806040525081019061208d9190612506565b90507f150b7a023d4804d13e8c85fb27262cb750cf6ba9f9dd3bb30d90f482ceeb4b1f7bffffffffffffffffffffffffffffffffffffffffffffffffffffffff1916817bffffffffffffffffffffffffffffffffffffffffffffffffffffffff1916149150505b949350505050565b600080823b905060008163ffffffff1611915050919050565b82805461212190612e3d565b90600052602060002090601f016020900481019282612143576000855561218a565b82601f1061215c57805160ff191683800117855561218a565b8280016001018555821561218a579182015b8281111561218957825182559160200191906001019061216e565b5b509050612197919061219b565b5090565b5b808211156121b457600081600090555060010161219c565b5090565b60006121cb6121c684612bb2565b612b8d565b9050828152602081018484840111156121e7576121e6612f90565b5b6121f2848285612dfb565b509392505050565b600061220d61220884612be3565b612b8d565b90508281526020810184848401111561222957612228612f90565b5b612234848285612dfb565b509392505050565b60008135905061224b81613002565b92915050565b60008135905061226081613019565b92915050565b60008151905061227581613019565b92915050565b60008151905061228a81613030565b92915050565b600082601f8301126122a5576122a4612f8b565b5b81356122b58482602086016121b8565b91505092915050565b600082601f8301126122d3576122d2612f8b565b5b81356122e38482602086016121fa565b91505092915050565b6000813590506122fb81613047565b92915050565b6000813590506123108161305e565b92915050565b60006020828403121561232c5761232b612f9a565b5b600061233a8482850161223c565b91505092915050565b6000806040838503121561235a57612359612f9a565b5b60006123688582860161223c565b92505060206123798582860161223c565b9150509250929050565b60008060006060848603121561239c5761239b612f9a565b5b60006123aa8682870161223c565b93505060206123bb8682870161223c565b92505060406123cc868287016122ec565b9150509250925092565b600080600080608085870312156123f0576123ef612f9a565b5b60006123fe8782880161223c565b945050602061240f8782880161223c565b9350506040612420878288016122ec565b925050606085013567ffffffffffffffff81111561244157612440612f95565b5b61244d87828801612290565b91505092959194509250565b600080604083850312156124705761246f612f9a565b5b600061247e8582860161223c565b925050602061248f85828601612251565b9150509250929050565b600080604083850312156124b0576124af612f9a565b5b60006124be8582860161223c565b92505060206124cf858286016122ec565b9150509250929050565b6000602082840312156124ef576124ee612f9a565b5b60006124fd84828501612266565b91505092915050565b60006020828403121561251c5761251b612f9a565b5b600061252a8482850161227b565b91505092915050565b60006020828403121561254957612548612f9a565b5b6000612557848285016122ec565b91505092915050565b6000806000806000806000806000806101408b8d03121561258457612583612f9a565b5b60006125928d828e016122ec565b9a505060208b013567ffffffffffffffff8111156125b3576125b2612f95565b5b6125bf8d828e016122be565b99505060408b013567ffffffffffffffff8111156125e0576125df612f95565b5b6125ec8d828e016122be565b98505060608b013567ffffffffffffffff81111561260d5761260c612f95565b5b6126198d828e016122be565b975050608061262a8d828e01612301565b96505060a061263b8d828e01612301565b95505060c061264c8d828e01612301565b94505060e061265d8d828e01612301565b93505061010061266f8d828e016122ec565b9250506101206126818d828e016122ec565b9150509295989b9194979a5092959850565b600080600080608085870312156126ad576126ac612f9a565b5b60006126bb878288016122ec565b945050602085013567ffffffffffffffff8111156126dc576126db612f95565b5b6126e8878288016122be565b93505060406126f9878288016122ec565b925050606085013567ffffffffffffffff81111561271a57612719612f95565b5b612726878288016122be565b91505092959194509250565b600080600080600060a0868803121561274e5761274d612f9a565b5b600061275c888289016122ec565b955050602061276d888289016122ec565b945050604061277e888289016122ec565b935050606061278f8882890161223c565b92505060806127a08882890161223c565b9150509295509295909350565b6127b681612d61565b82525050565b6127c581612d73565b82525050565b60006127d682612c14565b6127e08185612c2a565b93506127f0818560208601612e0a565b6127f981612f9f565b840191505092915050565b600061280f82612c1f565b6128198185612c3b565b9350612829818560208601612e0a565b61283281612f9f565b840191505092915050565b600061284a601783612c3b565b915061285582612fb0565b602082019050919050565b600061286d601283612c3b565b915061287882612fd9565b602082019050919050565b61288c81612dcb565b82525050565b61289b81612de9565b82525050565b6128aa81612dd5565b82525050565b60006020820190506128c560008301846127ad565b92915050565b60006040820190506128e060008301856127ad565b6128ed60208301846127ad565b9392505050565b600060808201905061290960008301876127ad565b61291660208301866127ad565b6129236040830185612883565b818103606083015261293581846127cb565b905095945050505050565b600060208201905061295560008301846127bc565b92915050565b600060208201905081810360008301526129758184612804565b905092915050565b600060208201905081810360008301526129968161283d565b9050919050565b600060208201905081810360008301526129b681612860565b9050919050565b60006020820190506129d26000830184612883565b92915050565b6000610140820190506129ee600083018d612883565b8181036020830152612a00818c612804565b90508181036040830152612a14818b612804565b90508181036060830152612a28818a612804565b9050612a3760808301896128a1565b612a4460a08301886128a1565b612a5160c08301876128a1565b612a5e60e0830186612883565b612a6c610100830185612883565b612a7a610120830184612883565b9b9a5050505050505050505050565b600061014082019050612a9f600083018d612883565b8181036020830152612ab1818c612804565b90508181036040830152612ac5818b612804565b90508181036060830152612ad9818a612804565b9050612ae860808301896128a1565b612af560a08301886128a1565b612b0260c08301876128a1565b612b0f60e0830186612892565b612b1d610100830185612883565b612b2b610120830184612883565b9b9a5050505050505050505050565b6000608082019050612b4f6000830187612883565b8181036020830152612b618186612804565b9050612b706040830185612883565b8181036060830152612b828184612804565b905095945050505050565b6000612b97612ba8565b9050612ba38282612e6f565b919050565b6000604051905090565b600067ffffffffffffffff821115612bcd57612bcc612f5c565b5b612bd682612f9f565b9050602081019050919050565b600067ffffffffffffffff821115612bfe57612bfd612f5c565b5b612c0782612f9f565b9050602081019050919050565b600081519050919050565b600081519050919050565b600082825260208201905092915050565b600082825260208201905092915050565b6000612c5782612dcb565b9150612c6283612dcb565b9250827fffffffffffffffffffffffffffffffffffffffffffffffffffffffffffffffff03821115612c9757612c96612ea0565b5b828201905092915050565b6000612cad82612dcb565b9150612cb883612dcb565b925082612cc857612cc7612ecf565b5b828204905092915050565b6000612cde82612dcb565b9150612ce983612dcb565b9250817fffffffffffffffffffffffffffffffffffffffffffffffffffffffffffffffff0483118215151615612d2257612d21612ea0565b5b828202905092915050565b6000612d3882612dcb565b9150612d4383612dcb565b925082821015612d5657612d55612ea0565b5b828203905092915050565b6000612d6c82612dab565b9050919050565b60008115159050919050565b60007fffffffff0000000000000000000000000000000000000000000000000000000082169050919050565b600073ffffffffffffffffffffffffffffffffffffffff82169050919050565b6000819050919050565b600067ffffffffffffffff82169050919050565b6000612df482612dd5565b9050919050565b82818337600083830152505050565b60005b83811015612e28578082015181840152602081019050612e0d565b83811115612e37576000848401525b50505050565b60006002820490506001821680612e5557607f821691505b60208210811415612e6957612e68612efe565b5b50919050565b612e7882612f9f565b810181811067ffffffffffffffff82111715612e9757612e96612f5c565b5b80604052505050565b7f4e487b7100000000000000000000000000000000000000000000000000000000600052601160045260246000fd5b7f4e487b7100000000000000000000000000000000000000000000000000000000600052601260045260246000fd5b7f4e487b7100000000000000000000000000000000000000000000000000000000600052602260045260246000fd5b7f4e487b7100000000000000000000000000000000000000000000000000000000600052603260045260246000fd5b7f4e487b7100000000000000000000000000000000000000000000000000000000600052604160045260246000fd5b600080fd5b600080fd5b600080fd5b600080fd5b6000601f19601f8301169050919050565b7f46726f6d206973206e6f7420746f6b656e206f776e6572000000000000000000600082015250565b7f546f6b656e204944206e6f742056414c49440000000000000000000000000000600082015250565b61300b81612d61565b811461301657600080fd5b50565b61302281612d73565b811461302d57600080fd5b50565b61303981612d7f565b811461304457600080fd5b50565b61305081612dcb565b811461305b57600080fd5b50565b61306781612dd5565b811461307257600080fd5b5056fea2646970667358221220d5d7cf1d74ae276a8b11c6ed266515ea01f2dd3050c169a7db39d24eb107a8ad64736f6c63430008060033",
  "immutableReferences": {},
  "source": "// SPDX-License-Identifier: MIT\npragma solidity ^0.8.6;\npragma experimental ABIEncoderV2;\nimport \"./IERC721.sol\";\nimport \"./IERC721Receiver.sol\";\nimport \"./Receipt.sol\";\nimport \"@openzeppelin/contracts/utils/math/SafeMath.sol\";\nimport \"./LegalFramework.sol\";\n\ncontract NFT is IERC721, Receipt {\n    using SafeMath for uint256;\n    //Name and ticker symbol subject to change, just for Demo\n    string public constant override name = \"Farm Bit Collateral Protocol\";\n    string public constant override symbol = \"FBCP\";\n    bytes4 internal constant MAGIC_ERC721_RECEIVED =\n        bytes4(keccak256(\"onERC721Received(address,address,uint256,bytes)\"));\n    /**\n     *  bytes4(keccak256('balanceOf(address)')) == 0x70a08231\n     *  bytes4(keccak256('ownerOf(uint256)')) == 0x6352211e\n     *  bytes4(keccak256('approve(address, uint256)')) == 0x095ea7b3\n     *  bytes4(keccak256('getApproved(uint256)')) == 0x081812fc\n     *  bytes4(keccak256('setApprovalForAll(address, bool)')) == 0xa22cb465\n     *  bytes4(keccak256('isApprovedForAll(address, address)')) == 0xe985e9c5\n     *  bytes4(keccak256('transferFrom(address, address, uint256)')) == 0x23b872dd\n     *  bytes4(keccak256('safeTransferFrom(address, address, uint256)')) == 0x42842e0e\n     *  bytes4(keccak256('safeTransferFrom(address, address, uint256, bytes)')) == 0xb88d4fde\n     *\n     *  => 0x70a08231 ^ 0x6352211e ^ 0x095ea7b3 ^ 0x081812fc ^\n     *     0xa22cb465 ^ 0xe985e9c5 ^ 0x23b872dd ^ 0x42842e0e ^ 0xb88d4fde == 0x80ac58cd\n     */\n    bytes4 private constant _INTERFACE_ID_ERC721 = 0x80ac58cd;\n\n    /**\n     *  bytes4(keccak256('supportsInterface(bytes4)'));\n     */\n    bytes4 private constant _INTERFACE_ID_ERC165 = 0x01ffc9a7;\n    struct Loan {\n        uint256 id;\n        string required_loan_duration;\n        uint256 amount;\n        string details_of_receipt;\n    }\n    Loan[] public Loans;\n    mapping(address => uint256) public balances;\n    mapping(address => uint256) public loanIncites;\n    mapping(uint256 => address) public loanIdMapping;\n    mapping(uint256 => address) public loanIndexToApproved;\n    mapping(address => mapping(address => bool))\n        private _collateralManagerApproval;\n\n    event ApplicationMade(\n        uint256 newLoanId,\n        string required_loan_duration,\n        uint256 amount,\n        string details_of_receipt\n    );\n\n    function loanApplication(\n        uint256 _id,\n        string memory _required_loan_duration,\n        uint256 _amount,\n        string memory _details_of_receipt\n    ) external returns (uint256) {\n        Loan memory _loan = Loan(\n            _id,\n            _required_loan_duration,\n            _amount,\n            _details_of_receipt\n        );\n        Loans.push(_loan);\n        uint256 newloanId = Loans.length.sub(1);\n        emit ApplicationMade(\n            newloanId,\n            _required_loan_duration,\n            _amount,\n            _details_of_receipt\n        );\n        return newloanId;\n    }\n\n    function getLoans(uint256 _id)\n        external\n        view\n        returns (\n            uint256 id,\n            string memory required_loan_duration,\n            uint256 amount,\n            string memory details_of_receipt\n        )\n    {\n        return (\n            Loans[_id].id,\n            Loans[_id].required_loan_duration,\n            Loans[_id].amount,\n            Loans[_id].details_of_receipt\n        );\n    }\n\n    function totalSupply() external view override returns (uint256 total) {\n        return Loans.length;\n    }\n\n    function balanceOf(address owner)\n        external\n        view\n        override\n        returns (uint256 balance)\n    {\n        return loanIncites[owner];\n    }\n\n    function ownerOf(uint256 tokenId) public view returns (address owner) {\n        return loanIdMapping[tokenId];\n    }\n\n    function transfer(address to, uint256 tokenId) external override {\n        require(to != address(0));\n        require(to != address(this));\n        require(_owns(msg.sender, tokenId));\n        _transfer(msg.sender, to, tokenId);\n    }\n\n    function _transfer(\n        address _from,\n        address _to,\n        uint256 _tokenId\n    ) internal {\n        balances[_to].add(1);\n        _to = loanIdMapping[_tokenId];\n        if (_from != address(0)) {\n            balances[_from].sub(1);\n            delete loanIndexToApproved[_tokenId];\n        }\n        emit Transfer(_from, _to, _tokenId);\n    }\n\n    function _owns(address _claimant, uint256 _tokenId)\n        internal\n        view\n        returns (bool)\n    {\n        return loanIdMapping[_tokenId] == _claimant;\n    }\n\n    function approve(address _approved, uint256 _tokenId)\n        public\n        payable\n        override\n    {\n        require(_approved != address(0));\n        require(_owns(msg.sender, _tokenId));\n        _approve(_approved, _tokenId);\n        emit Approval(loanIdMapping[_tokenId], _approved, _tokenId);\n    }\n\n    function setApprovalForAll(address operator, bool _approved)\n        external\n        override\n    {\n        require(operator != address(0));\n        require(operator != msg.sender);\n        _setApprovalForAll(operator, _approved);\n        emit ApprovalForAll(msg.sender, operator, _approved);\n    }\n\n    function getApproved(uint256 _tokenId)\n        external\n        view\n        override\n        returns (address)\n    {\n        require(_tokenId < Loans.length);\n        return loanIndexToApproved[_tokenId];\n    }\n\n    function isApprovedForAll(address _owner, address _operator)\n        external\n        view\n        override\n        returns (bool)\n    {\n        return _collateralManagerApproval[_owner][_operator];\n    }\n\n    function mintNFT(\n        uint256 receiptId,\n        uint256 amount,\n        uint256 collateral,\n        address _owner,\n        address _operator\n    ) external view returns (bool) {\n        require(receiptId > 0);\n        require(collateral > amount);\n        return _collateralManagerApproval[_owner][_operator];\n    }\n\n    function calculateFee(uint256 amount) external pure returns (uint256) {\n        //100 basis points = 1 pct\n        return (amount.div(10000)).mul(100);\n    }\n\n    function safeTransferFrom(\n        address _from,\n        address _to,\n        uint256 _tokenId,\n        bytes memory data\n    ) public payable override {\n        require(_isApprovedOrOwner(msg.sender, _from, _to, _tokenId));\n        _safeTransfer(_from, _to, _tokenId, data);\n    }\n\n    //Front End function in which Collateral Manager: approves, appraises, and documents asset\n    function _setApprovalForAll(address _operator, bool _approved) internal {\n        _collateralManagerApproval[msg.sender][_operator] = _approved;\n    }\n\n    //Assets must be in warehouse\n    function _checkERC721Support(\n        address _from,\n        address _to,\n        uint256 _tokenId,\n        bytes memory _data\n    ) internal returns (bool) {\n        if (!_isContract(_to)) {\n            return true;\n        }\n        bytes4 returnData = IERC721Receiver(_to).onERC721Received(\n            msg.sender,\n            _from,\n            _tokenId,\n            _data\n        );\n        return returnData == MAGIC_ERC721_RECEIVED;\n    }\n\n    function _isContract(address _to) internal view returns (bool) {\n        uint32 size;\n        assembly {\n            size := extcodesize(_to)\n        }\n        return size > 0;\n    }\n\n    function _safeTransfer(\n        address from,\n        address to,\n        uint256 tokenId,\n        bytes memory _data\n    ) internal {\n        _transfer(from, to, tokenId);\n        require(_checkERC721Support(from, to, tokenId, _data));\n    }\n\n    function safeTransferFrom(\n        address _from,\n        address _to,\n        uint256 _tokenId\n    ) external payable override {\n        safeTransferFrom(_from, _to, _tokenId, \"\");\n    }\n\n    function transferFrom(\n        address _from,\n        address _to,\n        uint256 _tokenId\n    ) external payable override {\n        require(_to != address(0));\n        address owner = loanIdMapping[_tokenId];\n        require(_to != owner);\n        require(\n            msg.sender == _from ||\n                approvedFor(msg.sender, _tokenId) ||\n                this.isApprovedForAll(owner, msg.sender)\n        );\n        require(_owns(_from, _tokenId), \"From is not token owner\");\n        require(_tokenId < Loans.length, \"Token ID not VALID\");\n        _transfer(_from, _to, _tokenId);\n    }\n\n    function _approve(address _approved, uint256 _tokenId) private {\n        loanIndexToApproved[_tokenId] = _approved;\n    }\n\n    function approvedFor(address claimant, uint256 tokenId)\n        internal\n        view\n        returns (bool)\n    {\n        return loanIndexToApproved[tokenId] == claimant;\n    }\n\n    function _isApprovedOrOwner(\n        address spender,\n        address _from,\n        address _to,\n        uint256 _tokenId\n    ) private view returns (bool) {\n        require(_tokenId < Loans.length);\n        require(_to != address(0));\n        address owner = loanIdMapping[_tokenId];\n        require(_to != owner);\n        require(_owns(_from, _tokenId));\n        //Error at approve(spender, _tokenId)\n        return (spender == _from ||\n            approvedFor(spender, _tokenId) ||\n            this.isApprovedForAll(owner, spender));\n    }\n}\n",
  "sourcePath": "/Users/heyyehudes/Documents/Farmbit_Demo/Project-Demo/contracts/NFT.sol",
  "compiler": {
    "name": "solc",
    "version": "0.8.6+commit.11564f7e.Emscripten.clang"
  },
  "schemaVersion": "3.3.1",
  "updatedAt": "2021-08-05T03:34:50.899Z",
  "networkType": "ethereum",
  "devdoc": {
    "kind": "dev",
    "methods": {
      "getApproved(uint256)": {
        "details": "Throws if `_tokenId` is not a valid NFT.",
        "params": {
          "_tokenId": "The NFT to find the approved address for"
        },
        "returns": {
          "_0": "The approved address for this NFT, or the zero address if there is none"
        }
      },
      "isApprovedForAll(address,address)": {
        "params": {
          "_operator": "The address that acts on behalf of the owner",
          "_owner": "The address that owns the NFTs"
        },
        "returns": {
          "_0": "True if `_operator` is an approved operator for `_owner`, false otherwise"
        }
      },
      "safeTransferFrom(address,address,uint256)": {
        "details": "This works identically to the other function with an extra data parameter,  except this function just sets data to \"\".",
        "params": {
          "_from": "The current owner of the NFT",
          "_to": "The new owner",
          "_tokenId": "The NFT to transfer"
        }
      },
      "safeTransferFrom(address,address,uint256,bytes)": {
        "details": "Safely transfers `tokenId` token from `from` to `to`, checking first that contract recipients are aware of the ERC721 protocol to prevent tokens from being forever locked. Requirements: - `from` cannot be the zero address. - `to` cannot be the zero address. - `tokenId` token must exist and be owned by `from`. - If the caller is not `from`, it must be have been allowed to move this token by either {approve} or {setApprovalForAll}. - If `to` refers to a smart contract, it must implement {IERC721Receiver-onERC721Received}, which is called upon a safe transfer. Emits a {Transfer} event."
      }
    },
    "version": 1
  },
  "userdoc": {
    "kind": "user",
    "methods": {
      "getApproved(uint256)": {
        "notice": "Get the approved address for a single NFT"
      },
      "isApprovedForAll(address,address)": {
        "notice": "Query if an address is an authorized operator for another address"
      },
      "safeTransferFrom(address,address,uint256)": {
        "notice": "Transfers the ownership of an NFT from one address to another address"
      }
    },
    "version": 1
  }
}