{
  "contractName": "Receipt",
  "abi": [
    {
      "anonymous": false,
      "inputs": [
        {
          "indexed": false,
          "internalType": "uint256",
          "name": "ReceiptId",
          "type": "uint256"
        },
        {
          "indexed": false,
          "internalType": "string",
          "name": "shipper",
          "type": "string"
        },
        {
          "indexed": false,
          "internalType": "string",
          "name": "cosignee",
          "type": "string"
        },
        {
          "indexed": false,
          "internalType": "string",
          "name": "destination",
          "type": "string"
        },
        {
          "indexed": false,
          "internalType": "uint64",
          "name": "unitWeight",
          "type": "uint64"
        },
        {
          "indexed": false,
          "internalType": "uint64",
          "name": "numberOfPackages",
          "type": "uint64"
        },
        {
          "indexed": false,
          "internalType": "uint64",
          "name": "totalWeight",
          "type": "uint64"
        },
        {
          "indexed": false,
          "internalType": "uint256",
          "name": "itemId",
          "type": "uint256"
        },
        {
          "indexed": false,
          "internalType": "uint256",
          "name": "packageId",
          "type": "uint256"
        },
        {
          "indexed": false,
          "internalType": "uint256",
          "name": "date",
          "type": "uint256"
        }
      ],
      "name": "ReceiptIssued",
      "type": "event"
    },
    {
      "inputs": [
        {
          "internalType": "uint256",
          "name": "",
          "type": "uint256"
        }
      ],
      "name": "receipts",
      "outputs": [
        {
          "internalType": "uint256",
          "name": "id",
          "type": "uint256"
        },
        {
          "internalType": "string",
          "name": "shipper",
          "type": "string"
        },
        {
          "internalType": "string",
          "name": "cosignee",
          "type": "string"
        },
        {
          "internalType": "string",
          "name": "destination",
          "type": "string"
        },
        {
          "internalType": "uint64",
          "name": "unitWeight",
          "type": "uint64"
        },
        {
          "internalType": "uint64",
          "name": "numberOfPackages",
          "type": "uint64"
        },
        {
          "internalType": "uint64",
          "name": "totalWeight",
          "type": "uint64"
        },
        {
          "internalType": "uint256",
          "name": "itemId",
          "type": "uint256"
        },
        {
          "internalType": "uint256",
          "name": "packageId",
          "type": "uint256"
        },
        {
          "internalType": "uint256",
          "name": "date",
          "type": "uint256"
        }
      ],
      "stateMutability": "view",
      "type": "function",
      "constant": true
    },
    {
      "inputs": [
        {
          "internalType": "uint256",
          "name": "_id",
          "type": "uint256"
        },
        {
          "internalType": "string",
          "name": "_shipper",
          "type": "string"
        },
        {
          "internalType": "string",
          "name": "_cosignee",
          "type": "string"
        },
        {
          "internalType": "string",
          "name": "_destination",
          "type": "string"
        },
        {
          "internalType": "uint64",
          "name": "_unitWeight",
          "type": "uint64"
        },
        {
          "internalType": "uint64",
          "name": "_numberOfPackages",
          "type": "uint64"
        },
        {
          "internalType": "uint64",
          "name": "_totalWeight",
          "type": "uint64"
        },
        {
          "internalType": "uint64",
          "name": "_itemId",
          "type": "uint64"
        },
        {
          "internalType": "uint256",
          "name": "_packageId",
          "type": "uint256"
        },
        {
          "internalType": "uint256",
          "name": "_date",
          "type": "uint256"
        }
      ],
      "name": "issueReceipt",
      "outputs": [
        {
          "internalType": "uint256",
          "name": "",
          "type": "uint256"
        }
      ],
      "stateMutability": "nonpayable",
      "type": "function"
    },
    {
      "inputs": [
        {
          "internalType": "uint256",
          "name": "_id",
          "type": "uint256"
        }
      ],
      "name": "showReceipts",
      "outputs": [
        {
          "internalType": "uint256",
          "name": "",
          "type": "uint256"
        },
        {
          "internalType": "string",
          "name": "",
          "type": "string"
        },
        {
          "internalType": "string",
          "name": "",
          "type": "string"
        },
        {
          "internalType": "string",
          "name": "",
          "type": "string"
        },
        {
          "internalType": "uint64",
          "name": "",
          "type": "uint64"
        },
        {
          "internalType": "uint64",
          "name": "",
          "type": "uint64"
        },
        {
          "internalType": "uint64",
          "name": "",
          "type": "uint64"
        },
        {
          "internalType": "uint256",
          "name": "",
          "type": "uint256"
        },
        {
          "internalType": "uint256",
          "name": "",
          "type": "uint256"
        },
        {
          "internalType": "uint256",
          "name": "",
          "type": "uint256"
        }
      ],
      "stateMutability": "view",
      "type": "function",
      "constant": true
    }
  ],
  "bytecode": "0x608060405234801561001057600080fd5b506001600081905550610f8c806100286000396000f3fe608060405234801561001057600080fd5b50600436106100415760003560e01c80630f7ee1ec146100465780632472cdef1461007f5780633d10d201146100b8575b600080fd5b610060600480360381019061005b9190610989565b6100e8565b6040516100769a99989796959493929190610b6a565b60405180910390f35b61009960048036038101906100949190610989565b610320565b6040516100af9a99989796959493929190610b6a565b60405180910390f35b6100d260048036038101906100cd91906109b6565b61062c565b6040516100df9190610b4f565b60405180910390f35b600181815481106100f857600080fd5b906000526020600020906008020160009150905080600001549080600101805461012190610de4565b80601f016020809104026020016040519081016040528092919081815260200182805461014d90610de4565b801561019a5780601f1061016f5761010080835404028352916020019161019a565b820191906000526020600020905b81548152906001019060200180831161017d57829003601f168201915b5050505050908060020180546101af90610de4565b80601f01602080910402602001604051908101604052809291908181526020018280546101db90610de4565b80156102285780601f106101fd57610100808354040283529160200191610228565b820191906000526020600020905b81548152906001019060200180831161020b57829003601f168201915b50505050509080600301805461023d90610de4565b80601f016020809104026020016040519081016040528092919081815260200182805461026990610de4565b80156102b65780601f1061028b576101008083540402835291602001916102b6565b820191906000526020600020905b81548152906001019060200180831161029957829003601f168201915b5050505050908060040160009054906101000a900467ffffffffffffffff16908060040160089054906101000a900467ffffffffffffffff16908060040160109054906101000a900467ffffffffffffffff1690806005015490806006015490806007015490508a565b60006060806060600080600080600080600060018c8154811061034657610345610ea5565b5b9060005260206000209060080201604051806101400160405290816000820154815260200160018201805461037a90610de4565b80601f01602080910402602001604051908101604052809291908181526020018280546103a690610de4565b80156103f35780601f106103c8576101008083540402835291602001916103f3565b820191906000526020600020905b8154815290600101906020018083116103d657829003601f168201915b5050505050815260200160028201805461040c90610de4565b80601f016020809104026020016040519081016040528092919081815260200182805461043890610de4565b80156104855780601f1061045a57610100808354040283529160200191610485565b820191906000526020600020905b81548152906001019060200180831161046857829003601f168201915b5050505050815260200160038201805461049e90610de4565b80601f01602080910402602001604051908101604052809291908181526020018280546104ca90610de4565b80156105175780601f106104ec57610100808354040283529160200191610517565b820191906000526020600020905b8154815290600101906020018083116104fa57829003601f168201915b505050505081526020016004820160009054906101000a900467ffffffffffffffff1667ffffffffffffffff1667ffffffffffffffff1681526020016004820160089054906101000a900467ffffffffffffffff1667ffffffffffffffff1667ffffffffffffffff1681526020016004820160109054906101000a900467ffffffffffffffff1667ffffffffffffffff1667ffffffffffffffff16815260200160058201548152602001600682015481526020016007820154815250509050806000015181602001518260400151836060015184608001518560a001518660c001518760e001518861010001518961012001519a509a509a509a509a509a509a509a509a509a50509193959799509193959799565b6000806040518061014001604052808d81526020018c81526020018b81526020018a81526020018967ffffffffffffffff1681526020018867ffffffffffffffff1681526020018767ffffffffffffffff1681526020018667ffffffffffffffff16815260200185815260200184815250905060018190806001815401808255809150506001900390600052602060002090600802016000909190919091506000820151816000015560208201518160010190805190602001906106f192919061084c565b50604082015181600201908051906020019061070e92919061084c565b50606082015181600301908051906020019061072b92919061084c565b5060808201518160040160006101000a81548167ffffffffffffffff021916908367ffffffffffffffff16021790555060a08201518160040160086101000a81548167ffffffffffffffff021916908367ffffffffffffffff16021790555060c08201518160040160106101000a81548167ffffffffffffffff021916908367ffffffffffffffff16021790555060e082015181600501556101008201518160060155610120820151816007015550506000600180805490506107ee9190610d3e565b90507f26311033641a922a8506d77e30d988fb632d25f33311fba73b86cbf8f757041f818d8d8d8d8d8d8d8d8d6040516108319a99989796959493929190610c1b565b60405180910390a180925050509a9950505050505050505050565b82805461085890610de4565b90600052602060002090601f01602090048101928261087a57600085556108c1565b82601f1061089357805160ff19168380011785556108c1565b828001600101855582156108c1579182015b828111156108c05782518255916020019190600101906108a5565b5b5090506108ce91906108d2565b5090565b5b808211156108eb5760008160009055506001016108d3565b5090565b60006109026108fd84610cf1565b610ccc565b90508281526020810184848401111561091e5761091d610f08565b5b610929848285610da2565b509392505050565b600082601f83011261094657610945610f03565b5b81356109568482602086016108ef565b91505092915050565b60008135905061096e81610f28565b92915050565b60008135905061098381610f3f565b92915050565b60006020828403121561099f5761099e610f12565b5b60006109ad8482850161095f565b91505092915050565b6000806000806000806000806000806101408b8d0312156109da576109d9610f12565b5b60006109e88d828e0161095f565b9a505060208b013567ffffffffffffffff811115610a0957610a08610f0d565b5b610a158d828e01610931565b99505060408b013567ffffffffffffffff811115610a3657610a35610f0d565b5b610a428d828e01610931565b98505060608b013567ffffffffffffffff811115610a6357610a62610f0d565b5b610a6f8d828e01610931565b9750506080610a808d828e01610974565b96505060a0610a918d828e01610974565b95505060c0610aa28d828e01610974565b94505060e0610ab38d828e01610974565b935050610100610ac58d828e0161095f565b925050610120610ad78d828e0161095f565b9150509295989b9194979a5092959850565b6000610af482610d22565b610afe8185610d2d565b9350610b0e818560208601610db1565b610b1781610f17565b840191505092915050565b610b2b81610d72565b82525050565b610b3a81610d90565b82525050565b610b4981610d7c565b82525050565b6000602082019050610b646000830184610b22565b92915050565b600061014082019050610b80600083018d610b22565b8181036020830152610b92818c610ae9565b90508181036040830152610ba6818b610ae9565b90508181036060830152610bba818a610ae9565b9050610bc96080830189610b40565b610bd660a0830188610b40565b610be360c0830187610b40565b610bf060e0830186610b22565b610bfe610100830185610b22565b610c0c610120830184610b22565b9b9a5050505050505050505050565b600061014082019050610c31600083018d610b22565b8181036020830152610c43818c610ae9565b90508181036040830152610c57818b610ae9565b90508181036060830152610c6b818a610ae9565b9050610c7a6080830189610b40565b610c8760a0830188610b40565b610c9460c0830187610b40565b610ca160e0830186610b31565b610caf610100830185610b22565b610cbd610120830184610b22565b9b9a5050505050505050505050565b6000610cd6610ce7565b9050610ce28282610e16565b919050565b6000604051905090565b600067ffffffffffffffff821115610d0c57610d0b610ed4565b5b610d1582610f17565b9050602081019050919050565b600081519050919050565b600082825260208201905092915050565b6000610d4982610d72565b9150610d5483610d72565b925082821015610d6757610d66610e47565b5b828203905092915050565b6000819050919050565b600067ffffffffffffffff82169050919050565b6000610d9b82610d7c565b9050919050565b82818337600083830152505050565b60005b83811015610dcf578082015181840152602081019050610db4565b83811115610dde576000848401525b50505050565b60006002820490506001821680610dfc57607f821691505b60208210811415610e1057610e0f610e76565b5b50919050565b610e1f82610f17565b810181811067ffffffffffffffff82111715610e3e57610e3d610ed4565b5b80604052505050565b7f4e487b7100000000000000000000000000000000000000000000000000000000600052601160045260246000fd5b7f4e487b7100000000000000000000000000000000000000000000000000000000600052602260045260246000fd5b7f4e487b7100000000000000000000000000000000000000000000000000000000600052603260045260246000fd5b7f4e487b7100000000000000000000000000000000000000000000000000000000600052604160045260246000fd5b600080fd5b600080fd5b600080fd5b600080fd5b6000601f19601f8301169050919050565b610f3181610d72565b8114610f3c57600080fd5b50565b610f4881610d7c565b8114610f5357600080fd5b5056fea26469706673582212208ccb85e17ed8155357a1dc686245fc452d3b75b13b0ae72971804600e0de529664736f6c63430008060033",
  "immutableReferences": {},
  "source": "// SPDX-License-Identifier: MIT\npragma solidity ^0.8.6;\nimport \"@openzeppelin/contracts/security/ReentrancyGuard.sol\";\n\ncontract Receipt is ReentrancyGuard {\n    struct warehouseReceipt {\n        uint256 id;\n        string shipper;\n        string cosignee;\n        string destination;\n        uint64 unitWeight;\n        uint64 numberOfPackages;\n        uint64 totalWeight;\n        uint256 itemId;\n        uint256 packageId;\n        uint256 date;\n    }\n\n    warehouseReceipt[] public receipts;\n\n    event ReceiptIssued(\n        uint256 ReceiptId,\n        string shipper,\n        string cosignee,\n        string destination,\n        uint64 unitWeight,\n        uint64 numberOfPackages,\n        uint64 totalWeight,\n        uint256 itemId,\n        uint256 packageId,\n        uint256 date\n    );\n\n    function issueReceipt(\n        uint256 _id,\n        string memory _shipper,\n        string memory _cosignee,\n        string memory _destination,\n        uint64 _unitWeight,\n        uint64 _numberOfPackages,\n        uint64 _totalWeight,\n        uint64 _itemId,\n        uint256 _packageId,\n        uint256 _date\n    ) external returns (uint256) {\n        warehouseReceipt memory _warehouseReceipt = warehouseReceipt(\n            _id,\n            _shipper,\n            _cosignee,\n            _destination,\n            _unitWeight,\n            _numberOfPackages,\n            _totalWeight,\n            _itemId,\n            _packageId,\n            _date\n        );\n        receipts.push(_warehouseReceipt);\n        uint256 receiptId = receipts.length - 1;\n        emit ReceiptIssued(\n            receiptId,\n            _shipper,\n            _cosignee,\n            _destination,\n            _unitWeight,\n            _numberOfPackages,\n            _totalWeight,\n            _itemId,\n            _packageId,\n            _date\n        );\n        return receiptId;\n    }\n\n    // Waaaayy too many return values\n    // Too many arguments, local variables, and return values will break the compiler\n    // Not necessary if we have structs\n    // Also, never name the return values; only declare their variable typesz\n    function showReceipts(uint256 _id)\n        external\n        view\n        returns (\n            uint256,\n            string memory,\n            string memory,\n            string memory,\n            uint64,\n            uint64,\n            uint64,\n            uint256,\n            uint256,\n            uint256\n        )\n    {\n        warehouseReceipt memory receipt = receipts[_id];\n        return (\n            receipt.id,\n            receipt.shipper,\n            receipt.cosignee,\n            receipt.destination,\n            receipt.unitWeight,\n            receipt.numberOfPackages,\n            receipt.totalWeight,\n            receipt.itemId,\n            receipt.packageId,\n            receipt.date\n        );\n    }\n}\n",
  "sourcePath": "/Users/heyyehudes/Documents/Farmbit_Demo/Project-Demo/contracts/Receipt.sol",
  "compiler": {
    "name": "solc",
    "version": "0.8.6+commit.11564f7e.Emscripten.clang"
  },
  "schemaVersion": "3.3.1",
  "updatedAt": "2021-08-05T03:34:50.539Z",
  "networkType": "ethereum",
  "devdoc": {
    "kind": "dev",
    "methods": {},
    "version": 1
  },
  "userdoc": {
    "kind": "user",
    "methods": {},
    "version": 1
  }
}